:020000040000FA
:100000000C9435000C945D000C945D000C945D0024
:100010000C945D000C945D000C945D000C945D00EC
:100020000C945D000C945D000C945D000C945D00DC
:100030000C945D000C945D000C945D000C945D00CC
:100040000C946B020C945D000C94DB020C94B502D2
:100050000C945D000C945D000C945D000C945D00AC
:100060000C945D000C945D00900711241FBECFEF2F
:10007000D8E0DEBFCDBF23E0A4E4B3E001C01D9211
:10008000A43FB207E1F713E0A0E0B1E0EAE8FFE047
:1000900002C005900D92A434B107D9F710E0C5E372
:1000A000D0E004C02197FE010E94BD07C433D107F0
:1000B000C9F70E940D030C94C3070C9400003FB7CE
:1000C000F8948091530390915403A0915503B091FB
:1000D000560326B5A89B05C02F3F19F00196A11D18
:1000E000B11D3FBFBA2FA92F982F8827BC01CD0182
:1000F000620F711D811D911D42E0660F771F881FE1
:10010000991F4A95D1F70895AF92BF92CF92DF928F
:10011000EF92FF920F931F93CF93DF936C017B01BC
:100120008B01040F151FEB015E01AE18BF08C0174D
:10013000D10759F06991D601ED91FC910190F081C0
:10014000E02DC6010995892B79F7C501DF91CF9183
:100150001F910F91FF90EF90DF90CF90BF90AF90E5
:100160000895FC01538D448D252F30E0842F90E0BD
:10017000821B930B541710F0CF96089501970895A2
:10018000FC01918D828D981761F0A28DAE0FBF2F6B
:10019000B11D5D968C91928D9F5F9F73928F90E0C1
:1001A00008958FEF9FEF0895FC01918D828D981730
:1001B00031F0828DE80FF11D858D90E008958FEF6D
:1001C0009FEF0895FC01918D228D892F90E0805C36
:1001D0009F4F821B91098F739927089587E593E0BC
:1001E0000E94E20021E0892B09F420E0822F08958B
:1001F00080E090E0892B29F00E94EE0081110C94A0
:1002000000000895FC01A48DA80FB92FB11DA35AB9
:10021000BF4F2C91848D90E001968F739927848F26
:10022000A689B7892C93A089B1898C918370806449
:100230008C93938D848D981306C00288F389E02DEA
:1002400080818F7D80830895EF92FF920F931F939B
:10025000CF93DF93EC0181E0888F9B8D8C8D981379
:100260001AC0E889F989808185FF15C09FB7F89485
:10027000EE89FF896083E889F989808183708064D1
:1002800080839FBF81E090E0DF91CF911F910F911C
:10029000FF90EF900895F62E0B8D10E00F5F1F4F2B
:1002A0000F731127E02E8C8D8E110CC00FB607FC3A
:1002B000FACFE889F989808185FFF5CFCE010E94C8
:1002C0000201F1CFEB8DEC0FFD2FF11DE35AFF4F33
:1002D000F0829FB7F8940B8FEA89FB898081806256
:1002E000CFCFCF93DF93EC01888D8823B9F0AA8913
:1002F000BB89E889F9898C9185FD03C0808186FDE1
:100300000DC00FB607FCF7CF8C9185FFF2CF80812F
:1003100085FFEDCFCE010E940201E9CFDF91CF91A1
:10032000089530E020E09C01260F371F43F4305041
:1003300022F030E820E00C949F013FE72FEFC90145
:1003400008952F920F931F9350E040E08C012224D8
:100350009703A001012E072605260E03421D9001DA
:100360009E035209300D411D521DF8035209300DF4
:10037000411D521D1124CA011F910F912F90089504
:10038000CF93DF93C62F82508730A8F5E82FF0E097
:10039000E453FE4F0C94BD074302360225021102BE
:1003A000FF01E401D30162956F7084E00E94C001F7
:1003B000D82F6C2F6F7084E00E94C00120E1829FD3
:1003C000C0011124CD2F16C070E0F4E0759567953B
:1003D000FA95E1F7677083E00E94C001D82F6C2F77
:1003E000677083E00E94C001C870CD2B20E1829F1E
:1003F000C0011124C82B8C2FDF91CF91089570E09C
:10040000E3E075956795EA95E1F7677083E00E94F0
:10041000C001D82F6C2F677083E00E94C00128E0D4
:10042000CECF70E053E0759567955A95E1F763700C
:1004300082E00E94C001D82F6C2F637082E00E947E
:10044000C001C470CD2B28E0D2CF70E075956795C0
:1004500075956795637082E00E94C001D82F6C2F5C
:10046000637082E00E94C00124E0A9CF862F90E053
:1004700062FB222720F9880F991F880F991F84702B
:10048000822BC270B7CF262F30E061FB882780F91E
:10049000220F331F2270C82FC22BADCFCF93DF9313
:1004A000FC0101900020E9F73197AF01481B590B7F
:1004B000BC0187E593E00E948400EC0142E050E03B
:1004C00066E373E087E593E00E9484008C0F9D1F34
:1004D000DF91CF9108951F920F920FB60F921124C2
:1004E0002F933F938F939F93AF93BF9380914F032D
:1004F00090915003A0915103B091520330914E035B
:1005000023E0230F2D3758F50196A11DB11D20932F
:100510004E0380934F0390935003A0935103B093E5
:1005200052038091530390915403A0915503B091CD
:1005300056030196A11DB11D80935303909354035C
:10054000A0935503B0935603BF91AF919F918F91A4
:100550003F912F910F900FBE0F901F90189526E896
:10056000230F0296A11DB11DD2CF1F920F920FB67D
:100570000F9211242F933F934F935F936F937F9329
:100580008F939F93AF93BF93EF93FF9387E593E090
:100590000E940201FF91EF91BF91AF919F918F91C6
:1005A0007F916F915F914F913F912F910F900FBE6F
:1005B0000F901F9018951F920F920FB60F92112453
:1005C0002F938F939F93EF93FF93E0916703F091A5
:1005D00068038081E0916D03F0916E0382FD1BC082
:1005E0009081809170038F5F8F73209171038217C8
:1005F00041F0E0917003F0E0E95AFC4F958F809351
:100600007003FF91EF919F918F912F910F900FBEEB
:100610000F901F9018958081F4CFCF93DF93CDB7C3
:10062000DEB7A5970FB6F894DEBF0FBECDBF7894A6
:1006300084B5826084BD84B5816084BD85B58260E7
:1006400085BD85B5816085BD80916E008160809398
:100650006E00109281008091810082608093810001
:100660008091810081608093810080918000816011
:10067000809380008091B10084608093B10080916C
:10068000B00081608093B00080917A008460809394
:100690007A0080917A00826080937A0080917A005B
:1006A000816080937A0080917A00806880937A00DC
:1006B0001092C100E0916703F091680382E08083AB
:1006C000E0916303F09164031082E0916503F0917F
:1006D000660380E1808310926F03E0916B03F091D9
:1006E0006C0386E08083E0916903F0916A03808166
:1006F00080618083E0916903F0916A038081886062
:100700008083E0916903F0916A038081806880832F
:10071000E0916903F0916A0380818F7D808387E592
:1007200093E00E94E200181619060CF0EAC320E0DC
:1007300033E030934D0320934C033B832A832FB740
:10074000F89480914F0390915003A0915103B09180
:1007500052032FBF80935F0390936003A0936103C4
:10076000B093620387E593E00E94C00097FFCEC379
:100770002FB7F89480914F0390915003A0915103AB
:10078000B09152032FBF40915F035091600360917D
:10079000610370916203841B950BA60BB70B40910C
:1007A0005B0350915C0360915D0370915E0384175D
:1007B0009507A607B707B0F260914C0370914D03FF
:1007C00042E050E087E593E00E9484000E945F00D1
:1007D000688F798F8A8F9B8F60934803709349034A
:1007E00080934A0390934B03809000039090010301
:1007F00051E08516910409F423C3C40195958795AA
:100800009D8B8C8B9C899983A0E28A16910409F4B4
:100810007EC00CF060C0E8E08E16910409F471C04F
:10082000F0E18F16910409F46FC024E08216910460
:1008300009F05AC0A1E0ACA310E0C12E11E0D12E06
:100840008601F12C8981F81608F46DC0A6E2B3E0A8
:10085000BF83AE83E4E1F3E0FD83EC83F1E0FA8350
:10086000212CBCA1B21509F44CC1EA81EE0FE88736
:10087000AE81BF81ED91FD91BF83AE83FB87EA8797
:10088000AC81BD81ED91FD91BD83AC83FD87EC878B
:1008900000E011E01E86F9812E852F1708F06DC04B
:1008A00060E070E4D8018D919C910E94A101F80153
:1008B0009183808360E070E4828193810E94A10132
:1008C000D80113969C938E931297BE85BF5FBE8707
:1008D0000C5F1F4FE0CF30E883169104F1F034F441
:1008E00050E485169104B1F01CA2A6CF811481E0DA
:1008F0009806B1F0811492E09906B1F758E05CA334
:100900009BCFB2E0BCA398CFE3E0ECA395CFF4E09B
:10091000FCA392CF25E02CA38FCF36E03CA38CCF55
:1009200047E04CA389CF6F2D8CA10E94C001F8161F
:1009300000F5D8012D913C91B4E08B9FA0011124CA
:10094000DA01A050BF4F8D919C911197F8019183CE
:1009500080832D933C9382819381FA01EE5FFE4F59
:1009600020813181D80113963C932E931297918365
:100970008083F3940C5F1F4F65CF512C412C77245B
:100980007A94EFE7EDA3312C3A81232F30E03BA39B
:100990002AA34A81431509F4B0C0632C5981651616
:1009A00008F075C0862D90E09C01220F331F220FA6
:1009B000331FD901A050BF4FBF87AE87ED91FC9187
:1009C000F98BE88BA9014E5F5E4F5B8B4A8BDA0196
:1009D0000D90BC91A02DBF8BAE8BEAA1FBA18E0F19
:1009E0009F1F880F991F880F991F9C0120503F4F10
:1009F0003D8F2C8FD901ED90FC90FC01EE5FFE4FF6
:100A0000FF8FEE8FA080B180B701872D9DA10E943E
:100A1000A10199A388A3B501C2010E94A1018C0183
:100A200088A199A1801B910B28893989820F931F76
:100A3000AE85BF858D939C93B701C2010E94A10131
:100A40007C01B501872D9DA10E94A1018E0D9F1DE6
:100A50002E893F89280F391FEA89FB89318320833A
:100A600028A139A1021B130B48895989040F151FAE
:100A7000AC8DBD8D0D931C93EE89FF89E81BF90B9E
:100A8000AE8DBF8DED93FC93B8856B0E87CFB20111
:100A90008C859D850E94A1018C01672D7DA18A8591
:100AA0009B850E94A101B8010E94910166277727CA
:100AB000681B790B872D9DA10E9491017C01672DF8
:100AC0007DA18C859D850E94A1018C01B2018A8542
:100AD0009B850E94A10166277727601B710B0E94EE
:100AE000910166277727681B790BC2010E9491014B
:100AF0002C0133947E2CFDA24CCF2394E885EA830D
:100B0000B0CE1A82F9812A812F17E0F460E070E4F8
:100B1000D6018D919C910E94A101F6019183808361
:100B200060E070E4828193810E94A101D601139656
:100B30009C938E931297BA81BF5FBA83E4E0CE0E86
:100B4000D11CE0CF609102017091030180910001FE
:100B5000909101010E949101909301018093000105
:100B60001092030110920201822D90E0880F991FCC
:100B7000FC01EA5DFC4F208131813D832C838C5E3A
:100B80009C4FDC010D90BC91A02DBF83AE83C401AE
:100B90009595879595958795FC01EF77FF27FF8BB6
:100BA000EE8B1D8E1C8EAA24AA94FFE7BF2EF1E0C7
:100BB000F9832C893D8933273D8B2C8B3981032F79
:100BC00010E04E895F89401751070CF058C074013E
:100BD00097FE03C05FEFE51AF50AF594E794B12C90
:100BE0000B2D10E00E151F050CF02AC1C801880F4F
:100BF000991F880F991FFC01E050FF4F2081318120
:100C00003B832A8337FF05C03195219531093B830A
:100C10002A838E5F9E4FDC01CD90DC90D7FE03C00F
:100C2000D194C194D108B6018A819B810E9491011F
:100C3000BC0182E89AE50E94A101EA81FB81EC15E2
:100C4000FD0514F4DB82CA822A813B81281739070B
:100C500014F49B838A836A817B8187E493E00E94FA
:100C6000A101BC018A819B810E949101000F111F8B
:100C7000F801E050FF4F91838083B394B1CF6C8D26
:100C80007D8D8E819F810E94A1017C01B5018C81A7
:100C90009D810E94A101B7010E94910166277727DB
:100CA000681B790BC5010E9491016C01B5018E8111
:100CB0009F810E94A1017C016C8D7D8D8C819D8125
:100CC0000E94A101662777276E197F090E94910172
:100CD00066277727681B790B8C8D9D8D0E9491016B
:100CE0009D8F8C8FC801880F991F880F991FDC0179
:100CF000A050BF4F3D01ED91FC91FB83EA839C0125
:100D00002E5F3E4F39872887D9012D903C908C89E2
:100D10009D89801B910B880F991F880F991FFC01DB
:100D2000E050FF4FFB87EA87008111819C012E5F15
:100D30003E4F3D872C87D9014D905C90EA81FB8125
:100D4000E00FF11FFF87EE87B601C1010E94A101EC
:100D50007C016C8D7D8D8A819B810E94A101E80EB2
:100D6000F91EAE84BF84AE0CBF1CB601C2010E9446
:100D7000A101998B888B6C8D7D8DC8010E94A1018A
:100D80009B8B8A8B888999892A893B89821B930B43
:100D900060E070E48A0D9B1D0E94A101D3018D9338
:100DA0009C933101641875086C8D7D8DC1010E9482
:100DB000A1015C01B6018A819B810E94A101A81A50
:100DC000B90AB601C8010E94A1018C016C8D7D8D0C
:100DD000C2010E94A101800F911FA80EB91E60E000
:100DE00070E4C3018A0D9B1D0E94A101E885F9856D
:100DF000918380838A899B8928893989821B930BF7
:100E00008E199F0960E070E44E855F85840F951F01
:100E10000E94A101AA85BB858D939C93C201821972
:100E2000930960E070E48A0D9B1D0E94A101EC858E
:100E3000FD8591838083F981FF5FF9835601BECEE2
:100E40000E945F00288D398D4A8D5B8D621B730B6C
:100E5000840B950B60934403709345038093460382
:100E60009093470389E393E00E944E024091000370
:100E700050910103440F551F60E071E087E593E056
:100E80000E94840044E453E050934D0340934C038C
:100E900044E050E064E473E087E593E00E9484005E
:100EA0000E945F004B015C0184E6C82ED12CE12C2E
:100EB000F12C0E945F00681979098A099B09683E34
:100EC000734081059105A8F351E0C51AD108E108E6
:100ED000F10888EE880E83E0981EA11CB11CC11495
:100EE000D104E104F10429F7E0E0F0E0EF2B09F48C
:100EF00016CC0E94EE00882309F411CC0E94000059
:100F00000ECC8EE393E00E944E02CACFAA81BB8131
:100F10008D93BB83AA83A250B34009F010CC4CCC74
:100F2000E7E5F3E01382128288EE93E0A0E0B0E000
:100F300084839583A683B78386E093E0918380833F
:100F400085EC90E09587848784EC90E0978786878E
:100F500080EC90E0918B808B81EC90E0938B828B86
:100F600082EC90E0958B848B86EC90E0978B868B5F
:100F7000118E128E138E148E0895EE0FFF1F0590A2
:100F8000F491E02D0994F894FFCF0000702C2B53BE
:100F9000696F1A7E5B7E8571E35A063FEF22250B4F
:100FA000F6FAEDF3ADF527FE1C0AE0151A1E7920BE
:100FB000251CDE11C703E0F45BE8DDE0E4DF65E556
:100FC000C2EF14FCBE06340CB9090AFEBEE94CCFD0
:100FD000B4B2D6989886008071872A9D27BF69E9A8
:100FE0009716D940D6628F78FF7F68792A674C4D73
:100FF000B4304216F60147F6CCF342F9EC033E104A
:101000009B1A1C20231FA517200B39FC22EEDBE3C3
:1010100087DFE6E120EAE4F5D901530A130C0A055B
:10102000DBF411DDFAC01DA57B8EA581E6819790CA
:10103000D5AC90D30000702C2B53696F1A7E5B7E69
:101040008571E35A063FEF22250BF6FAEDF3ADF575
:1010500027FE1C0AE0151A1E7920251CDE11C70385
:10106000E0F45BE8DDE0E4DF65E5C2EF14FCBE061A
:10107000340CB9090AFEBEE94CCFB4B2D6989886B2
:10108000008071872A9D27BF69E99716D940D662EB
:101090008F78FF7F68792A674C4DB4304216F6018D
:1010A00047F6CCF342F9EC033E109B1A1C20231F99
:1010B000A517200B39FC22EEDBE387DFE6E120EA0F
:1010C000E4F5D901530A130C0A05DBF411DDFAC06B
:1010D0001DA57B8EA581E6819790D5AC90D30000AD
:1010E000702C2B53696F1A7E5B7E8571E35A063F25
:1010F000EF22250BF6FAEDF3ADF527FE1C0AE015FD
:101100001A1E7920251CDE11C703E0F45BE8DDE040
:10111000E4DF65E5C2EF14FCBE06340CB9090AFE33
:10112000BEE94CCFB4B2D6989886008071872A9DCC
:1011300027BF69E99716D940D6628F78FF7F687913
:101140002A674C4DB4304216F60147F6CCF342F90B
:10115000EC033E109B1A1C20231FA517200B39FC03
:1011600022EEDBE387DFE6E120EAE4F5D901530A6A
:10117000130C0A05DBF411DDFAC01DA57B8EA581D9
:10118000E6819790D5AC90D30000000100000000EC
:1011900024018400B1007101E200C000D40000000D
:1011A00000807EA504CF07E774F3B8F9DCFC6EFE7F
:1011B000FF7FFF7F7E25BE0977029E0028000A0080
:0E11C0000D0A00646F6E65007265616479004F
:107E0000112484B714BE81FFF0D085E080938100F7
:107E100082E08093C00088E18093C10086E0809377
:107E2000C20080E18093C4008EE0C9D0259A86E02C
:107E300020E33CEF91E0309385002093840096BBD3
:107E4000B09BFECF1D9AA8958150A9F7CC24DD24C4
:107E500088248394B5E0AB2EA1E19A2EF3E0BF2EE7
:107E6000A2D0813461F49FD0082FAFD0023811F036
:107E7000013811F484E001C083E08DD089C08234E0
:107E800011F484E103C0853419F485E0A6D080C0E4
:107E9000853579F488D0E82EFF2485D0082F10E0AE
:107EA000102F00270E291F29000F111F8ED06801E7
:107EB0006FC0863521F484E090D080E0DECF843638
:107EC00009F040C070D06FD0082F6DD080E0C81688
:107ED00080E7D80618F4F601B7BEE895C0E0D1E017
:107EE00062D089930C17E1F7F0E0CF16F0E7DF06D8
:107EF00018F0F601B7BEE89568D007B600FCFDCFD4
:107F0000A601A0E0B1E02C9130E011968C91119780
:107F100090E0982F8827822B932B1296FA010C0160
:107F200087BEE89511244E5F5F4FF1E0A038BF0790
:107F300051F7F601A7BEE89507B600FCFDCF97BE46
:107F4000E89526C08437B1F42ED02DD0F82E2BD052
:107F50003CD0F601EF2C8F010F5F1F4F84911BD097
:107F6000EA94F801C1F70894C11CD11CFA94CF0C13
:107F7000D11C0EC0853739F428D08EE10CD085E9AC
:107F80000AD08FE07ACF813511F488E018D01DD067
:107F900080E101D065CF982F8091C00085FFFCCF94
:107FA0009093C60008958091C00087FFFCCF809118
:107FB000C00084FD01C0A8958091C6000895E0E648
:107FC000F0E098E1908380830895EDDF803219F02E
:107FD00088E0F5DFFFCF84E1DECF1F93182FE3DFCA
:107FE0001150E9F7F2DF1F91089580E0E8DFEE27F6
:047FF000FF270994CA
:027FFE00040479
:00000001FF
