:100000000C9435000C945D000C945D000C945D0024
:100010000C945D000C945D000C945D000C945D00EC
:100020000C945D000C945D000C945D000C945D00DC
:100030000C945D000C945D000C945D000C945D00CC
:100040000C946C020C945D000C94DC020C94B602CF
:100050000C945D000C945D000C945D000C945D00AC
:100060000C945D000C945D000C0711241FBECFEFB3
:10007000D8E0DEBFCDBF22E0A4E4B2E001C01D9213
:10008000A43FB207E1F712E0A0E0B1E0E2E8FEE051
:1000900002C005900D92A434B107D9F710E0C5E372
:1000A000D0E004C02197FE010E943907C433D10774
:1000B000C9F70E940E030C943F070C9400003FB751
:1000C000F8948091530290915402A0915502B091FE
:1000D000560226B5A89B05C02F3F19F00196A11D19
:1000E000B11D3FBFBA2FA92F982F8827BC01CD0182
:1000F000620F711D811D911D42E0660F771F881FE1
:10010000991F4A95D1F70895AF92BF92CF92DF928F
:10011000EF92FF920F931F93CF93DF936C017B01BC
:100120008B01040F151FEB015E01AE18BF08C0174D
:10013000D10759F06991D601ED91FC910190F081C0
:10014000E02DC6010995892B79F7C501DF91CF9183
:100150001F910F91FF90EF90DF90CF90BF90AF90E5
:100160000895FC01538D448D252F30E0842F90E0BD
:10017000821B930B541710F0CF96089501970895A2
:10018000FC01918D828D981761F0A28DAE0FBF2F6B
:10019000B11D5D968C91928D9F5F9F73928F90E0C1
:1001A00008958FEF9FEF0895FC01918D828D981730
:1001B00031F0828DE80FF11D858D90E008958FEF6D
:1001C0009FEF0895FC01918D228D892F90E0805C36
:1001D0009F4F821B91098F739927089587E592E0BD
:1001E0000E94E20021E0892B09F420E0822F08958B
:1001F00080E090E0892B29F00E94EE0081110C94A0
:1002000000000895FC01A48DA80FB92FB11DA35AB9
:10021000BF4F2C91848D90E001968F739927848F26
:10022000A689B7892C93A089B1898C918370806449
:100230008C93938D848D981306C00288F389E02DEA
:1002400080818F7D80830895EF92FF920F931F939B
:10025000CF93DF93EC0181E0888F9B8D8C8D981379
:100260001AC0E889F989808185FF15C09FB7F89485
:10027000EE89FF896083E889F989808183708064D1
:1002800080839FBF81E090E0DF91CF911F910F911C
:10029000FF90EF900895F62E0B8D10E00F5F1F4F2B
:1002A0000F731127E02E8C8D8E110CC00FB607FC3A
:1002B000FACFE889F989808185FFF5CFCE010E94C8
:1002C0000201F1CFEB8DEC0FFD2FF11DE35AFF4F33
:1002D000F0829FB7F8940B8FEA89FB898081806256
:1002E000CFCFCF93DF93EC01888D8823B9F0AA8913
:1002F000BB89E889F9898C9185FD03C0808186FDE1
:100300000DC00FB607FCF7CF8C9185FFF2CF80812F
:1003100085FFEDCFCE010E940201E9CFDF91CF91A1
:10032000089530E020E09C01260F371F43F4305041
:1003300022F030E820E00C949F013FE72FEFC90145
:10034000089590E0282F9927960F920F33F490503C
:100350001AF090E80C94AD019FE7892F08952F9231
:100360000F931F9350E040E08C0122249703A001DB
:10037000012E072605260E03421D90019E035209F9
:10038000300D411D521DF8035209300D411D521D03
:100390001124CA011F910F912F900895CF93DF93DD
:1003A000C62F843009F452C050F4823009F46CC076
:1003B000833009F45CC08C2FDF91CF910895863093
:1003C000D1F080F18730B9F770E0F4E0759567956A
:1003D000FA95E1F7677083E00E94CE01D82F6C2F69
:1003E000677083E00E94CE01C870CD2B20E1829F10
:1003F000C001112415C070E0E3E075956795EA959A
:10040000E1F7677083E00E94CE01D82F6C2F6770F0
:1004100083E00E94CE0128E0829FC0011124CD2FED
:10042000C82BC9CF70E053E0759567955A95E1F7F1
:10043000637082E00E94CE01D82F6C2F637082E03F
:100440000E94CE01C470CD2B28E0D1CF70E075950D
:10045000679575956795637082E00E94CE01D82FED
:100460006C2F637082E00E94CE0124E0D5CF862FEE
:1004700090E062FB222720F9880F991F880F991FAF
:100480008470822BC270CCCF262F30E061FB88278E
:1004900080F9220F331F2270C82FC22B8CCFCF932D
:1004A000DF93FC0101900020E9F73197AF01481B71
:1004B000590BBC0187E592E00E948400EC0142E008
:1004C00050E066E372E087E592E00E9484008C0FC2
:1004D0009D1FDF91CF9108951F920F920FB60F923B
:1004E00011242F933F938F939F93AF93BF9380914A
:1004F0004F0290915002A0915102B091520230915E
:100500004E0223E0230F2D3758F50196A11DB11D92
:1005100020934E0280934F0290935002A093510279
:10052000B09352028091530290915402A0915502CF
:10053000B09156020196A11DB11D80935302909374
:100540005402A0935502B0935602BF91AF919F9170
:100550008F913F912F910F900FBE0F901F90189584
:1005600026E8230F0296A11DB11DD2CF1F920F9234
:100570000FB60F9211242F933F934F935F936F9376
:100580007F938F939F93AF93BF93EF93FF9387E5F1
:1005900092E00E940201FF91EF91BF91AF919F9174
:1005A0008F917F916F915F914F913F912F910F901C
:1005B0000FBE0F901F9018951F920F920FB60F92BB
:1005C00011242F938F939F93EF93FF93E0916702F2
:1005D000F09168028081E0916D02F0916E0282FDDF
:1005E0001BC09081809170028F5F8F732091710288
:1005F000821741F0E0917002F0E0E95AFD4F958FCB
:1006000080937002FF91EF919F918F912F910F90A6
:100610000FBE0F901F9018958081F4CFCF93DF937A
:10062000CDB7DEB7A7970FB6F894DEBF0FBECDBF2C
:10063000789484B5826084BD84B5816084BD85B5BD
:10064000826085BD85B5816085BD80916E008160C9
:1006500080936E001092810080918100826080936F
:100660008100809181008160809381008091800071
:100670008160809380008091B10084608093B1009C
:100680008091B00081608093B00080917A00846096
:1006900080937A0080917A00826080937A008091C2
:1006A0007A00816080937A0080917A0080688093DC
:1006B0007A001092C100E0916702F091680282E036
:1006C0008083E0916302F09164021082E091650200
:1006D000F091660280E1808310926F02E0916B02DC
:1006E000F0916C0286E08083E0916902F0916A02E9
:1006F000808180618083E0916902F0916A0280814B
:1007000088608083E0916902F0916A02808180684C
:100710008083E0916902F0916A0280818F7D8083FD
:1007200087E592E00E94E200181619060CF065C3F6
:1007300020E032E030934D0220934C023A8329832B
:100740002FB7F89480914F0290915002A0915102DE
:10075000B09152022FBF80935F0290936002A093EA
:100760006102B093620287E592E00E94C00097FFA9
:1007700049C32FB7F89480914F0290915002A091F5
:100780005102B09152022FBF40915F02509160021E
:100790006091610270916202841B950BA60BB70BEE
:1007A00040915B0250915C0260915D0270915E022B
:1007B00084179507A607B707B0F260914C027091B5
:1007C0004D0242E050E087E592E00E9484000E94E2
:1007D0005F004B015C018092480290924902A09216
:1007E0004A02B0924B02209000023090010271E068
:1007F0002716310409F4A7C2C101959587959E83F8
:100800008D83FD8090E22916310409F464C00CF058
:1008100050C0B8E02B16310409F459C0E0E12E169F
:10082000310409F456C0F4E02F16310409F059C020
:1008300001E00DA320E031E03A8329838901E12C16
:10084000EF1408F450C066E272E07B8B6A8B84E19F
:1008500092E09C838B83EE24E3941CA20DA12CA137
:10086000021709F4FAC00E2D000F0F83AA89BB8965
:10087000ED91FD91BB8BAA8BFF87EE87AB81BC818D
:10088000ED91FD91BC83AB83F98BE88BE0E0F1E067
:1008900090E09F1508F048C0808187FD8F5F8595A7
:1008A0008083818187FD8F5F859581839F5F3296ED
:1008B000F0CF00E82016310481F0211421E0320647
:1008C00071F030E42316310461F405E0B2CF02E0A8
:1008D000B0CF03E0AECF04E0ACCF06E0AACF07E094
:1008E000A8CF1DA2A7CF6E2D8DA10E94CE01E81624
:1008F000B8F4D8019C91E82FF0E09F01220F331F3C
:10090000D901A050BF4F8C91F80180839C938181C5
:10091000F901EF5FFE4F9081D80111969C9380837F
:10092000E3940E5F1F4F8CCF512C00E077247A9414
:100930001FE7612C2E2D30E039A328A3E61409F41B
:1009400087C0562D5F1508F048C0E52FF0E0DF01A5
:10095000AA0FBB1F9D0120503F4FBD016F5F7E4F0F
:100960007FA36EA3DB016C9188A199A1E80FF91F09
:10097000EE0FFF1FCF0180509F4FDC017C91EF5F96
:10098000FE4FC080B9859703B12D1124B9874C2D36
:100990008403412C1124D9014C91D984D40ED4184C
:1009A000DC92B98D8703B12D1124B98F388D2C2D90
:1009B0009203312D1124388F2B2F230F322F360F16
:1009C000AEA1BFA13C93440DB9854B1BDC014C93F8
:1009D000621B6083BF815B0FB5CF652D702F888947
:1009E00099890E94AF016C01672D712F8E859F85BB
:1009F0000E94AF01B6010E94910166277727681B0C
:100A0000790B872D912F0E9491018AA39BA3672DBB
:100A1000712F888999890E94AF016C01652D702F13
:100A20008E859F850E94AF01662777276C197D0907
:100A30000E94910166277727681B790B852D902FDF
:100A40000E949101582E092F63947AA01BA176CFA2
:100A50000CA10F5F0CA3EF8001CF90E09F15B8F4BD
:100A6000A981BA818C9187FD8F5F8595E981FA8193
:100A70008083818187FD8F5F8595A981BA811196D9
:100A80008C9311979F5F1296BA83A983E7CF6091E9
:100A90000101809100010E94A10180930001109248
:100AA0000101FCA1EF2FF0E0EE0FFF1FFC83EB83B1
:100AB000EA5DFD4F208131813A8329836B817C81FE
:100AC0006C5E7D4FDB010D90BC91A02DBC83AB8390
:100AD000C1019595879595958795FC01EF77FF273F
:100AE000F887EF83712CF12CCC24CA94FFE7DF2E1A
:100AF000662463942D813E8133273E832D83662DAA
:100B000070E07F876E878F819885861797070CF036
:100B10005AC03A82298237FE04C0D1011196BA83A5
:100B2000A983E981FA81F595E795FA83E983E12CB8
:100B30002E2D30E069817A81261737070CF003C12A
:100B4000220F331FF901E050FF4FF0808F2DFF0C73
:100B5000990B97FF03C0919581959109F82E2F5F0E
:100B60003E4FD9010C91002E000C110B17FF03C052
:100B7000119501951109602F8F2D0E94A1014C85BF
:100B80002BE5382FA303412D11244C872F2DF01670
:100B90000CF4202F0C8520172CF43BE5482FB403D0
:100BA000212D11240D8563E0E203012D11240D8711
:100BB000602F822F0E94A101EE2DF0E0E050FF4F48
:100BC0008083E394B5CF672D7F2D8B819C810E941C
:100BD000AF018C01B60189819A810E94AF01B801F1
:100BE0000E94910166277727681B790BC6010E9436
:100BF0009101582EE92EB6018B819C810E94AF0194
:100C00008C01672D7F2D89819A810E94AF01662713
:100C10007727601B710B0E94910166277727681B5D
:100C2000790B872D9F2D0E949101782EF92EAE858C
:100C3000BF85AA0FBB1FCD0180509F4FFC01408193
:100C40009D012F5F3E4F6901D9013C91ED81FE81ED
:100C50006E857F85E61BF70BEE0FFF1FDF01A050AF
:100C6000BF4FBF87AE876C91EF5FFE4F2081542F3F
:100C7000560F7F8D0E2DB003712D11247F8F7E8D29
:100C80000F2DC003712D11247E8F1F8D170F7B85B3
:100C90000E2DA003712D11247B877A850F2DE00383
:100CA000712D11247A877B85750F710F0A85701B52
:100CB000AC8900E4F003A12D1124AC8B0A2FDC01D8
:100CC0000C930D8D7F2DB703012D11240D8F0C8DED
:100CD0007E2DC703012D11240C8F0B8DE703012DF1
:100CE00011240B8F0A8D4F2DA403012D11240A8F7F
:100CF0008D8D0B8D800F0A8D800F0C8D801B432FE7
:100D0000421B480F0D8960E4C603012D11240D8B91
:100D1000D6010C930A85500F0B85501B511B0E8971
:100D2000D603012D11240E8BAE85BF850C93231B9A
:100D3000280F0F89A603012D11240F8B00836394C4
:100D4000C52CDE2CDCCE0E945F00681979098A0967
:100D50009B096093440270934502809346029093EE
:100D6000470289E392E00E944F02409100025091B5
:100D7000010260E071E087E592E00E94840024E4D3
:100D800032E030934D0220934C0244E050E0B90130
:100D900087E592E00E9484000E945F006B017C0165
:100DA00084E6882E912CA12CB12C0E945F006C1936
:100DB0007D098E099F09683E734081059105A8F35E
:100DC00031E0831A9108A108B10848EEC40E43E04F
:100DD000D41EE11CF11C81149104A104B10429F773
:100DE000E0E0F0E0EF2B09F49BCC0E94EE008823BA
:100DF00009F496CC0E94000093CC8EE392E00E940E
:100E00004F02CACFA981BA818D93BA83A983A25018
:100E1000B24009F095CCD1CCE7E5F2E01382128222
:100E200088EE93E0A0E0B0E084839583A683B78347
:100E300086E092E09183808385EC90E095878487BB
:100E400084EC90E09787868780EC90E0918B808B94
:100E500081EC90E0938B828B82EC90E0958B848B7D
:100E600086EC90E0978B868B118E128E138E148EEB
:100E70000895EE0FFF1F0590F491E02D0994F8946A
:020E8000FFCFA2
:100E8200002C536F7E7E725B3F230BFBF4F6FE0A4F
:100E9200161E201C1204F5E8E1E0E5F0FC070C0A3E
:100EA200FEEACFB3998780879DBFE9174163797FB7
:100EB20079674D311602F6F4F904101B201F180B46
:100EC200FCEEE4E0E2EAF6020A0C05F5DDC1A58ECD
:100ED200828291ADD4002C536F7E7E725B3F230BD6
:100EE200FBF4F6FE0A161E201C1204F5E8E1E0E50A
:100EF200F0FC070C0AFEEACFB3998780879DBFE911
:100F0200174163797F79674D311602F6F4F90410BF
:100F12001B201F180BFCEEE4E0E2EAF6020A0C05C5
:100F2200F5DDC1A58E828291ADD4002C536F7E7EF9
:100F3200725B3F230BFBF4F6FE0A161E201C120402
:100F4200F5E8E1E0E5F0FC070C0AFEEACFB3998789
:100F520080879DBFE9174163797F79674D3116021A
:100F6200F6F4F904101B201F180BFCEEE4E0E2EA91
:100F7200F6020A0C05F5DDC1A58E828291ADD40080
:100F820000010000000024018400B1007101E200B0
:100F9200C000D400000000807EA504CF07E774F3F0
:100FA200B8F9DCFC6EFEFF7FFF7F7E25BE0977026B
:100FB2009E0028000A000D0A00646F6E65007265CB
:040FC20061647900ED
:00000001FF
