:020000040000FA
:100000000C9444000C946C000C946C000C946C00E8
:100010000C946C000C946C000C946C000C946C00B0
:100020000C946C000C946C000C946C000C946C00A0
:100030000C946C000C946C000C946C000C946C0090
:100040000C943E020C946C000C94AE020C9488024A
:100050000C946C000C946C000C946C000C946C0070
:100060000C946C000C946C0005A84CCDB2D44EB925
:100070003836A9020C50B9918688083CA6AAAA2A4B
:10008000BE000000803F7D0711241FBECFEFD8E0E7
:10009000DEBFCDBF25E0A2E2B5E001C01D92A23DCA
:1000A000B207E1F715E0A0E0B1E0ECEDF4E102C049
:1000B00005900D92A232B107D9F710E0C4E4D0E068
:1000C00004C02197FE010E94660AC334D107C9F714
:1000D0000E94E0020C946C0A0C9400003FB7F89464
:1000E0008091310590913205A0913305B09134058E
:1000F00026B5A89B05C02F3F19F00196A11DB11D83
:100100003FBFBA2FA92F982F8827BC01CD01620FBE
:10011000711D811D911D42E0660F771F881F991F79
:100120004A95D1F70895AF92BF92CF92DF92EF92A6
:10013000FF920F931F93CF93DF936C017B018B0191
:10014000040F151FEB015E01AE18BF08C017D107E1
:1001500059F06991D601ED91FC910190F081E02D6B
:10016000C6010995892B79F7C501DF91CF911F91C0
:100170000F91FF90EF90DF90CF90BF90AF900895D8
:10018000FC01538D448D252F30E0842F90E0821B9D
:10019000930B541710F0CF96089501970895FC0122
:1001A000918D828D981761F0A28DAE0FBF2FB11D7A
:1001B0005D968C91928D9F5F9F73928F90E00895D2
:1001C0008FEF9FEF0895FC01918D828D981731F08C
:1001D000828DE80FF11D858D90E008958FEF9FEFE0
:1001E0000895FC01918D228D892F90E0805C9F4FB6
:1001F000821B91098F739927089585E395E00E94EA
:10020000F10021E0892B09F420E0822F089580E09D
:1002100090E0892B29F00E94FD0081110C940000D0
:100220000895FC01A48DA80FB92FB11DA35ABF4F8B
:100230002C91848D90E001968F739927848FA689E5
:10024000B7892C93A089B1898C91837080648C9339
:10025000938D848D981306C00288F389E02D8081E8
:100260008F7D80830895EF92FF920F931F93CF931A
:10027000DF93EC0181E0888F9B8D8C8D98131AC0E1
:10028000E889F989808185FF15C09FB7F894EE89C8
:10029000FF896083E889F989808183708064808325
:1002A0009FBF81E090E0DF91CF911F910F91FF9070
:1002B000EF900895F62E0B8D10E00F5F1F4F0F7318
:1002C0001127E02E8C8D8E110CC00FB607FCFACFD3
:1002D000E889F989808185FFF5CFCE010E9411015F
:1002E000F1CFEB8DEC0FFD2FF11DE35AFF4FF082A4
:1002F0009FB7F8940B8FEA89FB8980818062CFCF0A
:10030000CF93DF93EC01888D8823B9F0AA89BB894C
:10031000E889F9898C9185FD03C0808186FD0DC037
:100320000FB607FCF7CF8C9185FFF2CF808185FF58
:10033000EDCFCE010E941101E9CFDF91CF91089559
:10034000CF93DF93C62F843009F452C050F482302B
:1003500009F46CC0833009F45CC08C2FDF91CF911D
:1003600008958630D1F080F18730B9F770E0F4E07D
:1003700075956795FA95E1F7677083E00E94A00193
:10038000D82F6C2F677083E00E94A001C870CD2B1E
:1003900020E1829FC001112415C070E0E3E0759553
:1003A0006795EA95E1F7677083E00E94A001D82F76
:1003B0006C2F677083E00E94A00128E0829FC0013B
:1003C0001124CD2FC82BC9CF70E053E075956795E8
:1003D0005A95E1F7637082E00E94A001D82F6C2F3C
:1003E000637082E00E94A001C470CD2B28E0D1CFC1
:1003F00070E07595679575956795637082E00E94CA
:10040000A001D82F6C2F637082E00E94A00124E02D
:10041000D5CF862F90E062FB222720F9880F991F05
:10042000880F991F8470822BC270CCCF262F30E0AA
:1004300061FB882780F9220F331F2270C82FC22B3F
:100440008CCFCF93DF93FC0101900020E9F7319727
:10045000AF01481B590BBC0185E395E00E94930056
:10046000EC0142E050E064E175E085E395E00E9434
:1004700093008C0F9D1FDF91CF9108951F920F92D3
:100480000FB60F9211242F933F938F939F93AF93A7
:10049000BF9380912D0590912E05A0912F05B091CD
:1004A000300530912C0523E0230F2D3758F50196A8
:1004B000A11DB11D20932C0580932D0590932E0531
:1004C000A0932F05B09330058091310590913205AE
:1004D000A0913305B09134050196A11DB11D809303
:1004E000310590933205A0933305B0933405BF9145
:1004F000AF919F918F913F912F910F900FBE0F90D1
:100500001F90189526E8230F0296A11DB11DD2CF8A
:100510001F920F920FB60F9211242F933F934F9378
:100520005F936F937F938F939F93AF93BF93EF935B
:10053000FF9385E395E00E941101FF91EF91BF9138
:10054000AF919F918F917F916F915F914F913F916B
:100550002F910F900FBE0F901F9018951F920F9222
:100560000FB60F9211242F938F939F93EF93FF93C6
:10057000E0914505F09146058081E0914B05F091B1
:100580004C0582FD1BC0908180914E058F5F8F735B
:1005900020914F05821741F0E0914E05F0E0EB5CB1
:1005A000FA4F958F80934E05FF91EF919F918F9118
:1005B0002F910F900FBE0F901F9018958081F4CF50
:1005C000CF93DF93CDB7DEB7E6970FB6F894DEBFD3
:1005D0000FBECDBF789484B5826084BD84B5816040
:1005E00084BD85B5826085BD85B5816085BD8091FE
:1005F0006E00816080936E00109281008091810076
:10060000826080938100809181008160809381006D
:10061000809180008160809380008091B10084602F
:100620008093B1008091B00081608093B000809190
:100630007A00846080937A0080917A00826080934F
:100640007A0080917A00816080937A0080917A00AC
:10065000806880937A001092C100E0914505F09186
:10066000460582E08083E0914105F09142051082C9
:10067000E0914305F091440580E1808310924D059F
:10068000E0914905F0914A0586E08083E0914705B5
:10069000F0914805808180618083E0914705F09169
:1006A0004805808188608083E0914705F091480586
:1006B000808180688083E0914705F09148058081C2
:1006C0008F7D808385E395E00E94F100181619065E
:1006D0000CF004C420E035E030932B0520932A056C
:1006E0003A8329832FB7F89480912D0590912E0598
:1006F000A0912F05B09130052FBF80933D059093B9
:100700003E05A0933F05B093400585E395E00E9428
:10071000CF0097FFE8C32FB7F89480912D059091F3
:100720002E05A0912F05B09130052FBF40913D05BA
:1007300050913E0560913F0570914005841B950BDB
:10074000A60BB70B4091390550913A0560913B05D6
:1007500070913C0584179507A607B707B0F2609122
:100760002A0570912B0542E050E085E395E00E9458
:1007700093000E946E006FA378A789A79AA7609341
:1007800026057093270580932805909329052090CE
:1007900000053090010551E02516310409F43BC3F2
:1007A000B1017595679578876F837F81798780E23E
:1007B0002816310409F46CC00CF055C0A8E02A16C4
:1007C000310409F45FC0B0E12B16310409F45DC0B7
:1007D000E4E02E16310409F064C041E04DAB00E0C6
:1007E00011E0B12CB985BB1608F05DC06B2D8DA949
:1007F0000E94A001B81698F5F801408151816281EC
:100800007381F8E08F9FC0011124FC01E050FF4F7D
:10081000C080D180E280F380D801CD92DD92ED924C
:10082000FC921397408351836283738314964D9196
:100830005D916D917C9117979C012C5F3E4FF90162
:1008400080819181A281B381F80184839583A683FD
:10085000B783D9014D935D936D937C931397B394B4
:10086000085F1F4FBFCFF0E82F163104A1F021140D
:1008700021E0320699F030E42316310491F485E04A
:100880008DABADCF52E05DABAACF63E06DABA7CF30
:1008900074E07DABA4CF96E09DABA1CFA7E0ADAB5C
:1008A0009ECF1DAA9CCF11E000E0BDA9B01709F4AE
:1008B00006C1E12FEE0FEB831A8219822E2F30E052
:1008C00050E040E02FA738AB49AB5AAB412F50E086
:1008D0005CAB4BAB59815EAB511708F0EDC0A98101
:1008E000BA81BD01BB0F880B990B0E94AC072BEDA1
:1008F0003FE049EC50EC0E94E7076B017C016FA5DB
:1009000078A989A99AA90E94AC079B01AC01C701EB
:10091000B6010E9417096B017C010E9412094B016C
:100920005C01C701B6010E94C8096D877E878F8769
:10093000988BB985EEA9EB1708F0B7C08E2F90E021
:100940002BA93CA9280F391F43E0220F331F4A95DA
:10095000E1F7A90140505F4F5A8B498BDA014D9165
:100960005D916D917C914B8B5C8B6D8B7E8BF901D6
:10097000EC5FFE4FF88FEF8B408051806280738078
:1009800053E0880F991F5A95E1F79C0120503F4F83
:100990003C8F2B8FD9014D915D916D917C914F8F43
:1009A00058A369A37AA3FC01EC5FFE4FFCA3EBA361
:1009B00020813181428153812BA73CA74DA75EA79F
:1009C000A30192016B897C898D899E890E94A6086A
:1009D000A50194010E94E7076B017C012D853E85EE
:1009E0004F855889C501B4010E94A608A301920150
:1009F0000E94E7079B01AC01C701B6010E94A50850
:100A00002B013C01AC019B016F8D78A189A19AA1BA
:100A10000E94A608EB8DFC8D608371838283938393
:100A2000A30192016F8D78A189A19AA10E94A508C6
:100A3000A989BA896D937D938D939C931397A50192
:100A400094016D857E858F8598890E94A5082B89E4
:100A50003C894D895E890E94E707A70196010E94A3
:100A6000A6086B017C01AC019B016BA57CA58DA543
:100A70009EA50E94A608EBA1FCA1608371838283DE
:100A80009383A70196016BA57CA58DA59EA50E94C9
:100A9000A508AF89B88D6D937D938D939C93139723
:100AA000BEA9EB81BE0FBEAB44CF29813A812F5F37
:100AB0003F4F3A8329830ECF0F5F1B81F6CE2091E3
:100AC00004013091050140910601509107016091A8
:100AD00000017091010180910201909103010E9437
:100AE000A608609300017093010180930201909326
:100AF0000301109204011092050110920601109258
:100B00000701C1019595879595958795AC014F771C
:100B1000552758A34F8F51E059836F8178857727E8
:100B200078876F83CB01092E000CAA0BBB0B8BA31C
:100B30009CA3ADA3BEA3B981AB2FB0E0BA8BA98BA8
:100B4000EF8DF8A1EA17FB070CF047C0810137FED3
:100B500002C00F5F1F4F15950795712C272D30E0B0
:100B60003A832983201731070CF055C143E0220F47
:100B7000331F4A95E1F7F901E050FF4F6081718121
:100B800082819381F901EC5FFE4FC080D180E280C9
:100B9000F3809B01AC010E94E7074B015C01A701B8
:100BA0009601C701B6010E94E7079B01AC01C50190
:100BB000B4010E94A6080E94D60949815A81440FB7
:100BC000551F440F551F40505F4FDA016D937D93C1
:100BD0008D939C9313977394C1CF29893A89B90156
:100BE000330F880B990B0E94AC072BED3FE049E4D3
:100BF00050EC0E94E7076B017C016BA17CA18DA1E9
:100C00009EA10E94AC079B01AC01C701B6010E94E6
:100C100017096B017C010E9412096B837C838D8311
:100C20009E83C701B6010E94C80969877A878B87AE
:100C30009C8709891A89F3E0000F111FFA95E1F7E3
:100C4000A80140505F4F5E874D87DA01CD90DD905F
:100C5000ED90FC90EF81F88529893A89E21BF30B2E
:100C6000A3E0EE0FFF1FAA95E1F7FC8FEB8FE0509A
:100C7000FF4FFA8BE98B80809180A280B380A50121
:100C80009401C701B6010E94A6086F8B788F898FE7
:100C90009A8F0C5F1E4FD8014D915D916D917C91A3
:100CA0004B8B5C8B6D8B7E8BEB8DFC8DEC5FFE4FED
:100CB000FCA7EBA74080518062807380A301920162
:100CC0006B897C898D899E890E94A5086B8F7C8F9A
:100CD0008D8F9E8F6B897C898D899E899058A30109
:100CE00092010E94A5082B013C01A5019401C701B6
:100CF000B6010E94A5084B015C01AC019B01C30138
:100D0000B2010E94A6082B813C814D815E810E9428
:100D1000E7076B017C0129853A854B855C856B81F2
:100D20007C818D819E810E94A608A50194010E946C
:100D3000E7079B01AC01C701B6010E94A5084B0162
:100D40005C01AC019B016F89788D898D9A8D0E9421
:100D5000A50820E030E040E05FE30E94E707AD85B2
:100D6000BE856D937D938D939C931397A5019401FC
:100D70006F89788D898D9A8D0E94A60820E030E0D9
:100D800040E05FE30E94E707E989FA8960837183A5
:100D9000828393832B813C814D815E8169857A8535
:100DA0008B859C850E94A508A30192010E94E707FC
:100DB000A70196010E94A6086B017C01AC019B0172
:100DC0006B8D7C8D8D8D9E8D0E94A50820E030E07E
:100DD00040E05FE30E94E707D8016D937D938D9318
:100DE0009C9313976B8D7C8D8D8D9E8D9058A70154
:100DF00096010E94A50820E030E040E05FE30E94F9
:100E0000E707EBA5FCA56083718382839383F98157
:100E1000FF5FF98390CE0E946E002FA138A549A5EF
:100E20005AA5621B730B840B950B6093220570937C
:100E30002305809324059093250587E195E00E9482
:100E400021024091000550910105440F551F440FA8
:100E5000551F60E071E085E395E00E94930042E257
:100E600055E050932B0540932A0544E050E062E2A0
:100E700075E085E395E00E9493000E946E004B01AF
:100E80005C0184E6C82ED12CE12CF12C0E946E006E
:100E9000681979098A099B09683E734081059105A3
:100EA000A8F351E0C51AD108E108F10868EE860EF2
:100EB00063E0961EA11CB11CC114D104E104F1042D
:100EC00029F7E0E0F0E0EF2B09F4FCCB0E94FD00F5
:100ED000882309F4F7CB0E940000F4CB8CE195E065
:100EE0000E942102CACFA981BA818D93BA83A983B6
:100EF000A250B54009F0F6CB32CCE5E3F5E0138221
:100F0000128288EE93E0A0E0B0E084839583A6830C
:100F1000B78386E095E09183808385EC90E09587A8
:100F2000848784EC90E09787868780EC90E0918BB3
:100F3000808B81EC90E0938B828B82EC90E0958BA0
:100F4000848B86EC90E0978B868B118E128E138E9D
:100F5000148E0895E89409C097FB3EF4909580950F
:100F6000709561957F4F8F4F9F4F9923A9F0F92F6F
:100F700096E9BB279395F695879577956795B795ED
:100F8000F111F8CFFAF4BB0F11F460FF1BC06F5FD3
:100F90007F4F8F4F9F4F16C0882311F096E911C0E5
:100FA000772321F09EE8872F762F05C0662371F006
:100FB00096E8862F70E060E02AF09A95660F771F1A
:100FC000881FDAF7880F9695879597F908950E94FC
:100FD000FA070C946B080E945D0838F00E946408C0
:100FE00020F0952311F00C9454080C945A08112405
:100FF0000C949F080E947C0870F3959FC1F3950F95
:1010000050E0551F629FF001729FBB27F00DB11D8C
:10101000639FAA27F00DB11DAA1F649F6627B00D1C
:10102000A11D661F829F2227B00DA11D621F739F05
:10103000B00DA11D621F839FA00D611D221F749F13
:101040003327A00D611D231F849F600D211D822F5A
:10105000762F6A2F11249F5750409AF0F1F0882381
:101060004AF0EE0FFF1FBB1F661F771F881F9150AE
:101070005040A9F79E3F510580F00C9454080C9401
:101080009F085F3FE4F3983ED4F386957795679584
:10109000B795F795E7959F5FC1F7FE2B880F911DD8
:1010A0009695879597F9089597F99F6780E870E07E
:1010B00060E008959FEF80EC089500240A941616CE
:1010C000170618060906089500240A941216130636
:1010D000140605060895092E0394000C11F48823C4
:1010E00052F0BB0F40F4BF2B11F460FF04C06F5FE0
:1010F0007F4F8F4F9F4F089557FD9058440F551FB6
:1011000059F05F3F71F04795880F97FB991F61F089
:101110009F3F79F087950895121613061406551F00
:10112000F2CF4695F1DF08C0161617061806991F6C
:10113000F1CF86957105610508940895E894BB2761
:1011400066277727CB0197F908955058BB27AA2720
:101150000E94BD080C946B080E945D0838F00E9444
:10116000640820F039F49F3F19F426F40C945A08CF
:101170000EF4E095E7FB0C945408E92F0E947C08DC
:1011800058F3BA17620773078407950720F079F4BC
:10119000A6F50C949E080EF4E0950B2EBA2FA02D08
:1011A0000B01B90190010C01CA01A0011124FF2714
:1011B000591B99F0593F50F4503E68F11A16F0400F
:1011C000A22F232F342F4427585FF3CF469537950E
:1011D0002795A795F0405395C9F77EF41F16BA0BD3
:1011E000620B730B840BBAF09150A1F0FF0FBB1F81
:1011F000661F771F881FC2F70EC0BA0F621F731FCA
:10120000841F48F4879577956795B795F7959E3F26
:1012100008F0B0CF9395880F08F09927EE0F9795B7
:10122000879508950E948B09E3950C94B4090E9458
:101230002B090C946B080E94640858F00E945D080A
:1012400040F029F45F3F29F00C94540851110C949C
:101250009F080C945A080E947C0868F39923B1F304
:10126000552391F3951B550BBB27AA2762177307CC
:10127000840738F09F5F5F4F220F331F441FAA1F60
:10128000A9F335D00E2E3AF0E0E832D0915050401C
:10129000E695001CCAF72BD0FE2F29D0660F771FCA
:1012A000881FBB1F261737074807AB07B0E809F0B0
:1012B000BB0B802DBF01FF2793585F4F3AF09E3F35
:1012C000510578F00C9454080C949F085F3FE4F3A8
:1012D000983ED4F3869577956795B795F7959F5F78
:1012E000C9F7880F911D9695879597F90895E1E0C4
:1012F000660F771F881FBB1F621773078407BA0723
:1013000020F0621B730B840BBA0BEE1F88F7E0957D
:1013100008950C945A080E948408D8F3E894E0E0F9
:10132000BB279F57F0F02AED3FE049EC06C0EE0FD7
:10133000BB0F661F771F881F28F0B23A620773073A
:10134000840728F0B25A620B730B840BE3959A95CD
:1013500072F7803830F49A95BB0F661F771F881F8D
:10136000D2F790480C94180AEF93E0FF07C0A2EA66
:101370002AED3FE049EC5FEB0E94BD080E946B083C
:101380000F90039401FC9058E8E6F0E00C942B0ACF
:101390009F930E948B090F9007FCEE5F0C94B40999
:1013A00019F416F40C945A080C94160A0E94840836
:1013B000B8F39923C9F3B6F39F57550B87FF0E94E3
:1013C000240A0024A0E640EA90018058569597959B
:1013D00028F4805C660F771F881F20F026173707D8
:1013E000480730F4621B730B840B202931294A2BE8
:1013F000A69517940794202531254A2758F7660F9C
:10140000771F881F20F026173707480730F4620B34
:10141000730B840B200D311D411DA09581F7B9017F
:10142000842F9158880F9695879508959F3F31F0A6
:10143000915020F4879577956795B795880F911D02
:101440009695879597F9089591505040660F771FAC
:10145000881FD2F708959F938F937F936F93FF9385
:10146000EF939B01AC010E94E707EF91FF910E946F
:101470003F0A2F913F914F915F910C94E707DF93C3
:10148000CF931F930F93FF92EF92DF927B018C011A
:10149000689406C0DA2EEF010E94FA07FE01E89474
:1014A000A5912591359145915591A6F3EF010E94A3
:1014B000BD08FE019701A801DA9469F7DF90EF906B
:1014C000FF900F911F91CF91DF910895EE0FFF1FB5
:1014D0000590F491E02D0994F894FFCF00000000EE
:1014E000EE285E3FF5E1CF3F1F3D0B40349A1D4093
:1014F000A7EA1D4057E00D40B72DE33F8B889D3F85
:1015000095A12E3FC1E15E3E9B80C9BDD17071BEE9
:10151000106F4EBEB1ED13BDF12B4A3E0FB3DA3E54
:101520001879163FE854223FE2B20C3F44A8B23E7D
:101530001B0B973D7C755EBEDF67ECBE48A61BBFEC
:10154000468320BFBBFF04BFFA64A2BE95EC9CBDDE
:1015500019DC063E7B05743E4D64423E71F21CBDB3
:10156000858BDEBE717873BF0935C1BFBEEE00C08A
:101570009ABB17C026F91FC09BAC16C0890DF7BFD8
:101580009917A2BFF0D7E1BEF0D7E13E9917A23F6D
:10159000890DF73F9BAC164026F91F409ABB1740B8
:1015A000BEEE00400935C13F7178733F858BDE3E4A
:1015B00071F21C3D4D6442BE7B0574BE19DC06BE53
:1015C00095EC9C3DFA64A23EBBFF043F4683203F5E
:1015D00048A61B3FDF67EC3E7C755E3E1B0B97BD4C
:1015E00044A8B2BEE2B20CBFE85422BF187916BFBD
:1015F0000FB3DABEF12B4ABEB1ED133D106F4E3E74
:10160000D170713E9B80C93DC1E15EBE95A12EBFE8
:101610008B889DBFB72DE3BF57E00DC0A7EA1DC063
:10162000349A1DC01F3D0BC0F5E1CFBFEE285EBF51
:10163000CAC953A7EE285E3FF5E1CF3F1F3D0B40DF
:10164000349A1D40A7EA1D4057E00D40B72DE33FF7
:101650008B889D3F95A12E3FC1E15E3E9B80C9BD19
:10166000D17071BE106F4EBEB1ED13BDF12B4A3E6D
:101670000FB3DA3E1879163FE854223FE2B20C3F2E
:1016800044A8B23E1B0B973D7C755EBEDF67ECBE87
:1016900048A61BBF468320BFBBFF04BFFA64A2BE9F
:1016A00095EC9CBD19DC063E7B05743E4D64423EC4
:1016B00071F21CBD858BDEBE717873BF0935C1BF69
:1016C000BEEE00C09ABB17C026F91FC09BAC16C067
:1016D000890DF7BF9917A2BFF0D7E1BEF0D7E13E61
:1016E0009917A23F890DF73F9BAC164026F91F4082
:1016F0009ABB1740BEEE00400935C13F7178733F79
:10170000858BDE3E71F21C3D4D6442BE7B0574BE8E
:1017100019DC06BE95EC9C3DFA64A23EBBFF043F7B
:101720004683203F48A61B3FDF67EC3E7C755E3E4C
:101730001B0B97BD44A8B2BEE2B20CBFE85422BF57
:10174000187916BF0FB3DABEF12B4ABEB1ED133DC7
:10175000106F4E3ED170713E9B80C93DC1E15EBEAF
:1017600095A12EBF8B889DBFB72DE3BF57E00DC05D
:10177000A7EA1DC0349A1DC01F3D0BC0F5E1CFBFC5
:10178000EE285EBFCAC9D3A7EE285E3FF5E1CF3F82
:101790001F3D0B40349A1D40A7EA1D4057E00D4005
:1017A000B72DE33F8B889D3F95A12E3FC1E15E3E63
:1017B0009B80C9BDD17071BE106F4EBEB1ED13BD1F
:1017C000F12B4A3E0FB3DA3E1879163FE854223F18
:1017D000E2B20C3F44A8B23E1B0B973D7C755EBE47
:1017E000DF67ECBE48A61BBF468320BFBBFF04BF1C
:1017F000FA64A2BE95EC9CBD19DC063E7B05743EE6
:101800004D64423E71F21CBD858BDEBE717873BFA4
:101810000935C1BFBEEE00C09ABB17C026F91FC074
:101820009BAC16C0890DF7BF9917A2BFF0D7E1BED8
:10183000F0D7E13E9917A23F890DF73F9BAC1640C8
:1018400026F91F409ABB1740BEEE00400935C13F44
:101850007178733F858BDE3E71F21C3D4D6442BE54
:101860007B0574BE19DC06BE95EC9C3DFA64A23E75
:10187000BBFF043F4683203F48A61B3FDF67EC3E8B
:101880007C755E3E1B0B97BD44A8B2BEE2B20CBF96
:10189000E85422BF187916BF0FB3DABEF12B4ABE47
:1018A000B1ED133D106F4E3ED170713E9B80C93D2E
:1018B000C1E15EBE95A12EBF8B889DBFB72DE3BF52
:1018C00057E00DC0A7EA1DC0349A1DC01F3D0BC0D4
:1018D000F5E1CFBFEE285EBF58D71EA8000100007B
:1018E000000033019300C0008001F100CF00E3004D
:0E18F0000D0A00646F6E650072656164790018
:107E0000112484B714BE81FFF0D085E080938100F7
:107E100082E08093C00088E18093C10086E0809377
:107E2000C20080E18093C4008EE0C9D0259A86E02C
:107E300020E33CEF91E0309385002093840096BBD3
:107E4000B09BFECF1D9AA8958150A9F7CC24DD24C4
:107E500088248394B5E0AB2EA1E19A2EF3E0BF2EE7
:107E6000A2D0813461F49FD0082FAFD0023811F036
:107E7000013811F484E001C083E08DD089C08234E0
:107E800011F484E103C0853419F485E0A6D080C0E4
:107E9000853579F488D0E82EFF2485D0082F10E0AE
:107EA000102F00270E291F29000F111F8ED06801E7
:107EB0006FC0863521F484E090D080E0DECF843638
:107EC00009F040C070D06FD0082F6DD080E0C81688
:107ED00080E7D80618F4F601B7BEE895C0E0D1E017
:107EE00062D089930C17E1F7F0E0CF16F0E7DF06D8
:107EF00018F0F601B7BEE89568D007B600FCFDCFD4
:107F0000A601A0E0B1E02C9130E011968C91119780
:107F100090E0982F8827822B932B1296FA010C0160
:107F200087BEE89511244E5F5F4FF1E0A038BF0790
:107F300051F7F601A7BEE89507B600FCFDCF97BE46
:107F4000E89526C08437B1F42ED02DD0F82E2BD052
:107F50003CD0F601EF2C8F010F5F1F4F84911BD097
:107F6000EA94F801C1F70894C11CD11CFA94CF0C13
:107F7000D11C0EC0853739F428D08EE10CD085E9AC
:107F80000AD08FE07ACF813511F488E018D01DD067
:107F900080E101D065CF982F8091C00085FFFCCF94
:107FA0009093C60008958091C00087FFFCCF809118
:107FB000C00084FD01C0A8958091C6000895E0E648
:107FC000F0E098E1908380830895EDDF803219F02E
:107FD00088E0F5DFFFCF84E1DECF1F93182FE3DFCA
:107FE0001150E9F7F2DF1F91089580E0E8DFEE27F6
:047FF000FF270994CA
:027FFE00040479
:00000001FF
