:020000040000FA
:100000000C9435000C945D000C945D000C945D0024
:100010000C945D000C945D000C945D000C945D00EC
:100020000C945D000C945D000C945D000C945D00DC
:100030000C945D000C945D000C945D000C945D00CC
:100040000C9488020C945D000C94F8020C94D2027B
:100050000C945D000C945D000C945D000C945D00AC
:100060000C945D000C945D00670811241FBECFEF57
:10007000D8E0DEBFCDBF26E0A2E7B5E001C01D920B
:10008000A232B207E1F715E0A0E0B1E0E4EBF2E163
:1000900002C005900D92A237B107D9F710E0C5E371
:1000A000D0E004C02197FE010E945209C433D10759
:1000B000C9F70E942A030C9458090C9400003FB71A
:1000C000F8948091810590918205A0918305B0916B
:1000D000840526B5A89B05C02F3F19F00196A11DE8
:1000E000B11D3FBFBA2FA92F982F8827BC01CD0182
:1000F000620F711D811D911D42E0660F771F881FE1
:10010000991F4A95D1F70895AF92BF92CF92DF928F
:10011000EF92FF920F931F93CF93DF936C017B01BC
:100120008B01040F151FEB015E01AE18BF08C0174D
:10013000D10759F06991D601ED91FC910190F081C0
:10014000E02DC6010995892B79F7C501DF91CF9183
:100150001F910F91FF90EF90DF90CF90BF90AF90E5
:100160000895FC01538D448D252F30E0842F90E0BD
:10017000821B930B541710F0CF96089501970895A2
:10018000FC01918D828D981761F0A28DAE0FBF2F6B
:10019000B11D5D968C91928D9F5F9F73928F90E0C1
:1001A00008958FEF9FEF0895FC01918D828D981730
:1001B00031F0828DE80FF11D858D90E008958FEF6D
:1001C0009FEF0895FC01918D228D892F90E0805C36
:1001D0009F4F821B91098F739927089585E895E0B9
:1001E0000E94E20021E0892B09F420E0822F08958B
:1001F00080E090E0892B29F00E94EE0081110C94A0
:1002000000000895FC01A48DA80FB92FB11DA35AB9
:10021000BF4F2C91848D90E001968F739927848F26
:10022000A689B7892C93A089B1898C918370806449
:100230008C93938D848D981306C00288F389E02DEA
:1002400080818F7D80830895EF92FF920F931F939B
:10025000CF93DF93EC0181E0888F9B8D8C8D981379
:100260001AC0E889F989808185FF15C09FB7F89485
:10027000EE89FF896083E889F989808183708064D1
:1002800080839FBF81E090E0DF91CF911F910F911C
:10029000FF90EF900895F62E0B8D10E00F5F1F4F2B
:1002A0000F731127E02E8C8D8E110CC00FB607FC3A
:1002B000FACFE889F989808185FFF5CFCE010E94C8
:1002C0000201F1CFEB8DEC0FFD2FF11DE35AFF4F33
:1002D000F0829FB7F8940B8FEA89FB898081806256
:1002E000CFCFCF93DF93EC01888D8823B9F0AA8913
:1002F000BB89E889F9898C9185FD03C0808186FDE1
:100300000DC00FB607FCF7CF8C9185FFF2CF80812F
:1003100085FFEDCFCE010E940201E9CFDF91CF91A1
:1003200008959B01AC01052E142E110C001C0A949B
:10033000550F07941794412D502D1124CA01B9016E
:1003400008958F929F92AF92BF92CF92DF92EF92D9
:10035000FF926B017C0149015A0160E070E0CB0122
:100360009B01AC010F2C0B2407FA3E2D30682A2D7F
:1003700020685F2D0E2C000C551F503041F04B2D86
:100380000A2C000C441F403011F00C94CD0120E0E9
:1003900030E040E050E00C94DE01540F5F572B0337
:1003A000900118F0220F331F5A955395432F322F87
:1003B0002227569547953795279557F91124CA0155
:1003C000B901FF90EF90DF90CF90BF90AF909F90DA
:1003D0008F900895CF93DF93C62F843009F452C0D5
:1003E00050F4823009F46CC0833009F45CC08C2F67
:1003F000DF91CF9108958630D1F080F18730B9F741
:1004000070E0F4E075956795FA95E1F7677083E021
:100410000E94EA01D82F6C2F677083E00E94EA01E6
:10042000C870CD2B20E1829FC001112415C070E05F
:10043000E3E075956795EA95E1F7677083E00E94C0
:10044000EA01D82F6C2F677083E00E94EA0128E050
:10045000829FC0011124CD2FC82BC9CF70E053E07B
:10046000759567955A95E1F7637082E00E94EA01FD
:10047000D82F6C2F637082E00E94EA01C470CD2BEC
:1004800028E0D1CF70E07595679575956795637095
:1004900082E00E94EA01D82F6C2F637082E00E94F4
:1004A000EA0124E0D5CF862F90E062FB222720F9D5
:1004B000880F991F880F991F8470822BC270CCCF30
:1004C000262F30E061FB882780F9220F331F22702E
:1004D000C82FC22B8CCFCF93DF93FC01019000205B
:1004E000E9F73197AF01481B590BBC0185E895E04E
:1004F0000E948400EC0142E050E064E675E085E88B
:1005000095E00E9484008C0F9D1FDF91CF9108958C
:100510001F920F920FB60F9211242F933F938F9338
:100520009F93AF93BF9380917D0590917E05A0919D
:100530007F05B091800530917C0523E0230F2D3796
:1005400058F50196A11DB11D20937C0580937D0572
:1005500090937E05A0937F05B093800580918105DF
:1005600090918205A0918305B09184050196A11D0B
:10057000B11D8093810590938205A0938305B0936C
:100580008405BF91AF919F918F913F912F910F90D3
:100590000FBE0F901F90189526E8230F0296A11DFD
:1005A000B11DD2CF1F920F920FB60F9211242F932D
:1005B0003F934F935F936F937F938F939F93AF93EB
:1005C000BF93EF93FF9385E895E00E940201FF91AE
:1005D000EF91BF91AF919F918F917F916F915F91BB
:1005E0004F913F912F910F900FBE0F901F90189534
:1005F0001F920F920FB60F9211242F938F939F93F8
:10060000EF93FF93E0919505F09196058081E0913D
:100610009B05F0919C0582FD1BC0908180919E05F9
:100620008F5F8F7320919F05821741F0E0919E05A7
:10063000F0E0EB57FA4F958F80939E05FF91EF9175
:100640009F918F912F910F900FBE0F901F90189533
:100650008081F4CFCF93DF93CDB7DEB7EF970FB69E
:10066000F894DEBF0FBECDBF789484B5826084BDA0
:1006700084B5816084BD85B5826085BD85B58160A6
:1006800085BD80916E00816080936E001092810024
:1006900080918100826080938100809181008160DF
:1006A00080938100809180008160809380008091A0
:1006B000B10084608093B1008091B000816080932C
:1006C000B00080917A00846080937A0080917A00F3
:1006D000826080937A0080917A00816080937A00B2
:1006E00080917A00806880937A001092C100E09136
:1006F0009505F091960582E08083E0919105F09157
:1007000092051082E0919305F091940580E1808339
:1007100010929D05E0919905F0919A0586E08083FD
:10072000E0919705F0919805808180618083E09148
:100730009705F0919805808188608083E091970506
:10074000F0919805808180688083E0919705F09111
:10075000980580818F7D808385E895E00E94E20086
:10076000181619060CF0A2C420E035E030937B0582
:1007700020937A053A8329832FB7F89480917D05D9
:1007800090917E05A0917F05B09180052FBF809349
:100790008D0590938E05A0938F05B093900585E805
:1007A00095E00E94C00097FF86C42FB7F89480910F
:1007B0007D0590917E05A0917F05B09180052FBFAA
:1007C00040918D0550918E0560918F057091900537
:1007D000841B950BA60BB70B4091890550918A0598
:1007E00060918B0570918C0584179507A607B70754
:1007F000B0F260917A0570917B0542E050E085E8A7
:1008000095E00E9484000E945F006AA77BA78CA7E6
:100810009DA76093760570937705809378059093F4
:100820007905209000053090010551E0251631042E
:1008300009F4D9C3C101959587959DA38CA39CA16B
:100840009987A0E22A16310409F438C10CF021C1BD
:10085000E8E02E16310409F42BC1F0E12F16310423
:1008600009F429C124E02216310409F030C181E0E5
:100870008EAF00E011E0B12C3985B31608F429C120
:1008800044E455E05FAB4EAB88E195E09DAB8CABAB
:1008900091E09D831886BEADE885BE1709F4AAC114
:1008A000FD81FF0FFA87AEA9BFA92D913D914D9112
:1008B0005D91BFABAEAB2E873F87488B598BACA900
:1008C000BDA92D913D914D915D91BDABACAB2A8BF6
:1008D0003B8B4C8B5D8B412C512C3201198210E0EB
:1008E00000E8BFE3BFAF1E82FD81EF2FF0E0FDAF58
:1008F000ECAF2D813E81231709F476C13F834985F2
:100900005F81541708F022C1852F90E02CAD3DADDA
:10091000280F391F43E0220F331F4A95E1F7D90111
:10092000A050BF4FBF8BAE8B8D909D90AD90BC9073
:10093000F901EC5FFE4FF98FE88F20813181428110
:1009400053812C8F3D8F4E8F5F8F53E0880F991FFF
:100950005A95E1F7FC01E050FF4FF9A3E8A320818D
:100960003181428153812EA33FA348A759A7FC019F
:10097000EC5FFE4FFFA7EEA72081318142815381BA
:1009800028AB39AB4AAB5BAB2C8D3D8D4E8D5F8D6B
:10099000C501B4010E94E6089B01AC016981712F79
:1009A000802F9FAD0E94A1016B017C012981312F15
:1009B000402F5FADC301B2010E94E5089B01AC016D
:1009C000C501B4010E94A10168AF79AF8AAF9BAFA6
:1009D000A30192016981712F802F9FAD0E94E608CB
:1009E0009B01AC016C8D7D8D8E8D9F8D0E94A10130
:1009F0009B01AC01C701B6010E94E5084B015C01F7
:100A0000AC019B016EA17FA188A599A50E94E60873
:100A1000E8A1F9A16083718382839383A501940186
:100A20006EA17FA188A599A50E94E508AE89BF891E
:100A30006D937D938D939C93139728AD39AD4AADFB
:100A40005BADC701B6010E94E6086B017C01AC01F9
:100A50009B0168A979A98AA99BA90E94E608EEA52D
:100A6000FFA56083718382839383A701960168A9A0
:100A700079A98AA99BA90E94E508A88DB98D6D93D3
:100A80007D938D939C931397BF81EA85BE0FBF839F
:100A900036CF30E823163104A1F0211441E03406AA
:100AA00099F050E42516310491F4E5E0EEAFE1CE83
:100AB00092E09EAFDECEA3E0AEAFDBCEB4E0BEAF41
:100AC000D8CEF6E0FEAFD5CE27E02EAFD2CE1EAE0A
:100AD000D0CE6B2D8EAD0E94EA01B81698F5D801E4
:100AE0004D915D916D917C91B8E08B9FC001112477
:100AF000FC01E050FF4FC080D180E280F380D8013C
:100B0000CD92DD92ED92FC921397408351836283E4
:100B1000738314964D915D916D917C9117979C0113
:100B20002C5F3E4FF90180819181A281B381F80150
:100B300084839583A683B783D9014D935D936D9389
:100B40007C931397B394085F1F4F96CE2981312F62
:100B5000402F5FAD6E857F85888999890E94A101AC
:100B60006B017C01A30192016A897B898C899D8933
:100B70000E94A1019B01AC01C701B6010E94E608D9
:100B80009B01AC016981712F802F9FAD0E94E50808
:100B90006B017C01A30192016E857F85888999890B
:100BA0000E94A1014B015C012981312F402F5FADD3
:100BB0006A897B898C899D890E94A1019B01AC0176
:100BC000C501B4010E94E5089B01AC01C301B2015B
:100BD0000E94E5082B013C01FE81FF5FFE83C98274
:100BE0001D2D0E2DFFAE85CE28852F5F28873A85D7
:100BF0003D8351CE209104013091050140910601C1
:100C000050910701609100017091010180910201F2
:100C1000909103010E94E608609300017093010126
:100C20008093020190930301109204011092050138
:100C300010920601109207015EAD452F50E0FA01B7
:100C4000EE0FFF1FEE0FFF1FEC5BFA4F80819181CB
:100C5000A281B3818A879B87AC87BD87440F551FCC
:100C6000440F551F485E5A4FDA012D913D914D9129
:100C70005C912E873F87488B598BC101959587954D
:100C800095958795FC01EF77FF27FFA3EEA31982C7
:100C90001A821B821C82A12CB12C00E81FE3F1E018
:100CA000F9872CA13DA133273DA32CA35985452FBE
:100CB00050E05F8B4E8B8EA19FA1841795070CF09F
:100CC0005AC0810137FE02C00F5F1F4F159507956F
:100CD000F12C2F2D30E03A832983201731070CF0B7
:100CE00082C143E0220F331F4A95E1F749815A81BF
:100CF000440F551F440F551F40505F4F5A8349837F
:100D0000F901EC5FFE4F80809180A280B380880C57
:100D1000991CAA1CBB1C58E6851A58E8950A54E78A
:100D2000A50A5FE3B50AC501B4019F77F901E05058
:100D3000FF4F2081318142815381220F331F441F95
:100D4000551F2856384844475F435F770E94E6089E
:100D5000DC01CB01825D904BA448B109B695A79503
:100D600097958795B05EE981FA8180839183A2830C
:100D7000B383F394AECF9501A8016A857B858C85FA
:100D80009D850E94A1016B017C0129813A814B81E3
:100D90005C816E857F85888999890E94A1019B016C
:100DA000AC01C701B6010E94E6089B01AC01B50188
:100DB000C8010E94E5086D837E838F83988729810F
:100DC0003A814B815C816A857B858C859D850E94FB
:100DD000A1016B017C019501A8016E857F85888941
:100DE00099890E94A1019B01AC01C701B6010E9433
:100DF000E5089B01AC0169817A818B819C810E940D
:100E0000E50869837A838B839C830E891F89A3E01D
:100E1000000F111FAA95E1F7D801A050BF4FBB8B5F
:100E2000AA8BCD90DD90ED90FC90ECA1FDA12E89D8
:100E30003F89E21BF30BB3E0EE0FFF1FBA95E1F71A
:100E4000F9A3E8A3E050FF4FFF8BEE8B80809180E9
:100E5000A280B380A5019401C701B6010E94E608F3
:100E60006C8F7D8F8E8F9F8F0C5F1E4FD8018D9161
:100E70009D910D90BC91A02D888F998FAA8FBB8FCB
:100E8000E8A1F9A1EC5FFE4FFFA7EEA740805180DB
:100E900062807380A3019201BC01CD010E94E5082C
:100EA00068A379A38AA39BA3688D798D8A8D9B8D76
:100EB0009058A30192010E94E5082B013C01A50175
:100EC0009401C701B6010E94E5084B015C01AC0129
:100ED0009B01C301B2010E94E6089B01AC016D8138
:100EE0007E818F8198850E94A1016B017C012D81FB
:100EF0003E814F81588569817A818B819C810E94D6
:100F0000E5089B01AC01C301B2010E94A1012B01C4
:100F10003C0129813A814B815C816D817E818F8189
:100F200098850E94E6089B01AC01C501B4010E94AE
:100F3000A1019B01AC01C701B6010E94E5084B016C
:100F40005C01AC019B016C8D7D8D8E8D9F8D0E940F
:100F5000E5080E949101AA89BB896D937D938D93C9
:100F60009C931397A50194016C8D7D8D8E8D9F8D23
:100F70000E94E6080E949101EE89FF8960837183D7
:100F800082839383A3019201C701B6010E94E60800
:100F90006B017C01AC019B0168A179A18AA19BA195
:100FA0000E94E5080E949101D8016D937D938D9375
:100FB0009C93139768A179A18AA19BA19058A7013E
:100FC00096010E94E5080E949101EEA5FFA56083AD
:100FD000718382839383F985FF5FF987AD80BE803B
:100FE0000F81188563CE0E945F002AA53BA54CA502
:100FF0005DA5621B730B840B950B60937205709358
:101000007305809374059093750587E695E00E94BB
:101010006B024091000550910105440F551F440F8C
:10102000551F60E071E085E895E00E94840042E78A
:1010300055E050937B0540937A0544E050E062E729
:1010400075E085E895E00E9484000E945F004B01F6
:101050005C0184E6C82ED12CE12CF12C0E945F00AB
:10106000681979098A099B09683E734081059105D1
:10107000A8F351E0C51AD108E108F10888EE880EFE
:1010800083E0981EA11CB11CC114D104E104F10439
:1010900029F7E0E0F0E0EF2B09F45ECB0E94EE00D0
:1010A000882309F459CB0E94000056CB8CE695E0CA
:1010B0000E946B02CACFA981BA818D93BA83A9839A
:1010C000E2E0F5E0EA17FB0709F056CB92CBE5E842
:1010D000F5E01382128288EE93E0A0E0B0E0848312
:1010E0009583A683B78386E095E09183808385EC22
:1010F00090E09587848784EC90E09787868780ECE2
:1011000090E0918B808B81EC90E0938B828B82ECD2
:1011100090E0958B848B86EC90E0978B868B118E7C
:10112000128E138E148E089597F99F6780E870E0F1
:1011300060E008959FEF80EC089500240A9416164D
:10114000170618060906089500240A9412161306B5
:10115000140605060895092E0394000C11F4882343
:1011600052F0BB0F40F4BF2B11F460FF04C06F5F5F
:101170007F4F8F4F9F4F089557FD9058440F551F35
:1011800059F05F3F71F04795880F97FB991F61F009
:101190009F3F79F087950895121613061406551F80
:1011A000F2CF4695F1DF08C0161617061806991FEC
:1011B000F1CF86957105610508940895E894BB27E1
:1011C00066277727CB0197F908955058BB27AA27A0
:1011D0000E94FD080C94AB080E949D0838F00E9404
:1011E000A40820F039F49F3F19F426F40C949A08CF
:1011F0000EF4E095E7FB0C949408E92F0E94BC08DC
:1012000058F3BA17620773078407950720F079F43B
:10121000A6F50C94DE080EF4E0950B2EBA2FA02D47
:101220000B01B90190010C01CA01A0011124FF2793
:10123000591B99F0593F50F4503E68F11A16F0408E
:10124000A22F232F342F4427585FF3CF469537958D
:101250002795A795F0405395C9F77EF41F16BA0B52
:10126000620B730B840BBAF09150A1F0FF0FBB1F00
:10127000661F771F881FC2F70EC0BA0F621F731F49
:10128000841F48F4879577956795B795F7959E3FA6
:1012900008F0B0CF9395880F08F09927EE0F979537
:1012A00087950895EE0FFF1F0590F491E02D0994A6
:1012B000F894FFCF00000000EE285E3FF5E1CF3F3D
:1012C0001F3D0B40349A1D40A7EA1D4057E00D40DA
:1012D000B72DE33F8B889D3F95A12E3FC1E15E3E38
:1012E0009B80C9BDD17071BE106F4EBEB1ED13BDF4
:1012F000F12B4A3E0FB3DA3E1879163FE854223FED
:10130000E2B20C3F44A8B23E1B0B973D7C755EBE1B
:10131000DF67ECBE48A61BBF468320BFBBFF04BFF0
:10132000FA64A2BE95EC9CBD19DC063E7B05743EBA
:101330004D64423E71F21CBD858BDEBE717873BF79
:101340000935C1BFBEEE00C09ABB17C026F91FC049
:101350009BAC16C0890DF7BF9917A2BFF0D7E1BEAD
:10136000F0D7E13E9917A23F890DF73F9BAC16409D
:1013700026F91F409ABB1740BEEE00400935C13F19
:101380007178733F858BDE3E71F21C3D4D6442BE29
:101390007B0574BE19DC06BE95EC9C3DFA64A23E4A
:1013A000BBFF043F4683203F48A61B3FDF67EC3E60
:1013B0007C755E3E1B0B97BD44A8B2BEE2B20CBF6B
:1013C000E85422BF187916BF0FB3DABEF12B4ABE1C
:1013D000B1ED133D106F4E3ED170713E9B80C93D03
:1013E000C1E15EBE95A12EBF8B889DBFB72DE3BF27
:1013F00057E00DC0A7EA1DC0349A1DC01F3D0BC0A9
:10140000F5E1CFBFEE285EBFCAC953A7EE285E3F05
:10141000F5E1CF3F1F3D0B40349A1D40A7EA1D4028
:1014200057E00D40B72DE33F8B889D3F95A12E3FA0
:10143000C1E15E3E9B80C9BDD17071BE106F4EBED2
:10144000B1ED13BDF12B4A3E0FB3DA3E1879163FCA
:10145000E854223FE2B20C3F44A8B23E1B0B973D3A
:101460007C755EBEDF67ECBE48A61BBF468320BF0F
:10147000BBFF04BFFA64A2BE95EC9CBD19DC063E1E
:101480007B05743E4D64423E71F21CBD858BDEBE11
:10149000717873BF0935C1BFBEEE00C09ABB17C0DB
:1014A00026F91FC09BAC16C0890DF7BF9917A2BFC4
:1014B000F0D7E1BEF0D7E13E9917A23F890DF73F83
:1014C0009BAC164026F91F409ABB1740BEEE004069
:1014D0000935C13F7178733F858BDE3E71F21C3D4B
:1014E0004D6442BE7B0574BE19DC06BE95EC9C3D86
:1014F000FA64A23EBBFF043F4683203F48A61B3F41
:10150000DF67EC3E7C755E3E1B0B97BD44A8B2BE08
:10151000E2B20CBFE85422BF187916BF0FB3DABE8F
:10152000F12B4ABEB1ED133D106F4E3ED170713EAE
:101530009B80C93DC1E15EBE95A12EBF8B889DBF3A
:10154000B72DE3BF57E00DC0A7EA1DC0349A1DC0F8
:101550001F3D0BC0F5E1CFBFEE285EBFCAC9D3A7C0
:10156000EE285E3FF5E1CF3F1F3D0B40349A1D4012
:10157000A7EA1D4057E00D40B72DE33F8B889D3F04
:1015800095A12E3FC1E15E3E9B80C9BDD17071BE69
:10159000106F4EBEB1ED13BDF12B4A3E0FB3DA3ED4
:1015A0001879163FE854223FE2B20C3F44A8B23EFD
:1015B0001B0B973D7C755EBEDF67ECBE48A61BBF6C
:1015C000468320BFBBFF04BFFA64A2BE95EC9CBD5E
:1015D00019DC063E7B05743E4D64423E71F21CBD33
:1015E000858BDEBE717873BF0935C1BFBEEE00C00A
:1015F0009ABB17C026F91FC09BAC16C0890DF7BF58
:101600009917A2BFF0D7E1BEF0D7E13E9917A23FEC
:10161000890DF73F9BAC164026F91F409ABB174037
:10162000BEEE00400935C13F7178733F858BDE3EC9
:1016300071F21C3D4D6442BE7B0574BE19DC06BED2
:1016400095EC9C3DFA64A23EBBFF043F4683203FDD
:1016500048A61B3FDF67EC3E7C755E3E1B0B97BDCB
:1016600044A8B2BEE2B20CBFE85422BF187916BF3C
:101670000FB3DABEF12B4ABEB1ED133D106F4E3EF3
:10168000D170713E9B80C93DC1E15EBE95A12EBF68
:101690008B889DBFB72DE3BF57E00DC0A7EA1DC0E3
:1016A000349A1DC01F3D0BC0F5E1CFBFEE285EBFD1
:1016B00058D71EA800010000000024018400B100DA
:1016C0007101E200C000D400000000000000000032
:1016D000000080BFF30435BF16EFC3BEC2C547BECE
:1016E00036BDC8BD30FB48BDB00AC9BC900E49BC70
:1016F0000000000000000000000000400000803FEB
:101700001BF6953E0CE59B3D30689D3C71C99D3BA9
:10171000C9E19D3ADFE79D390D0A00646F6E6500EF
:06172000726561647900AE
:107E0000112484B714BE81FFF0D085E080938100F7
:107E100082E08093C00088E18093C10086E0809377
:107E2000C20080E18093C4008EE0C9D0259A86E02C
:107E300020E33CEF91E0309385002093840096BBD3
:107E4000B09BFECF1D9AA8958150A9F7CC24DD24C4
:107E500088248394B5E0AB2EA1E19A2EF3E0BF2EE7
:107E6000A2D0813461F49FD0082FAFD0023811F036
:107E7000013811F484E001C083E08DD089C08234E0
:107E800011F484E103C0853419F485E0A6D080C0E4
:107E9000853579F488D0E82EFF2485D0082F10E0AE
:107EA000102F00270E291F29000F111F8ED06801E7
:107EB0006FC0863521F484E090D080E0DECF843638
:107EC00009F040C070D06FD0082F6DD080E0C81688
:107ED00080E7D80618F4F601B7BEE895C0E0D1E017
:107EE00062D089930C17E1F7F0E0CF16F0E7DF06D8
:107EF00018F0F601B7BEE89568D007B600FCFDCFD4
:107F0000A601A0E0B1E02C9130E011968C91119780
:107F100090E0982F8827822B932B1296FA010C0160
:107F200087BEE89511244E5F5F4FF1E0A038BF0790
:107F300051F7F601A7BEE89507B600FCFDCF97BE46
:107F4000E89526C08437B1F42ED02DD0F82E2BD052
:107F50003CD0F601EF2C8F010F5F1F4F84911BD097
:107F6000EA94F801C1F70894C11CD11CFA94CF0C13
:107F7000D11C0EC0853739F428D08EE10CD085E9AC
:107F80000AD08FE07ACF813511F488E018D01DD067
:107F900080E101D065CF982F8091C00085FFFCCF94
:107FA0009093C60008958091C00087FFFCCF809118
:107FB000C00084FD01C0A8958091C6000895E0E648
:107FC000F0E098E1908380830895EDDF803219F02E
:107FD00088E0F5DFFFCF84E1DECF1F93182FE3DFCA
:107FE0001150E9F7F2DF1F91089580E0E8DFEE27F6
:047FF000FF270994CA
:027FFE00040479
:00000001FF
