:020000040000FA
:100000000C9435000C945D000C945D000C945D0024
:100010000C945D000C945D000C945D000C945D00EC
:100020000C945D000C945D000C945D000C945D00DC
:100030000C945D000C945D000C945D000C945D00CC
:100040000C9402020C945D000C9472020C944C020D
:100050000C945D000C945D000C945D000C945D00AC
:100060000C945D000C945D002F0711241FBECFEF90
:10007000D8E0DEBFCDBF24E0A0EDB3E001C01D920B
:10008000A238B207E1F713E0A0E0B1E0E0E1F3E16C
:1000900002C005900D92A03DB107D9F710E0C5E36D
:1000A000D0E004C02197FE010E948009C433D1072B
:1000B000C9F70E94A4020C9486090C9400003FB773
:1000C000F8948091E1039091E203A091E303B09151
:1000D000E40326B5A89B05C02F3F19F00196A11D8A
:1000E000B11D3FBFBA2FA92F982F8827BC01CD0182
:1000F000620F711D811D911D42E0660F771F881FE1
:10010000991F4A95D1F70895AF92BF92CF92DF928F
:10011000EF92FF920F931F93CF93DF936C017B01BC
:100120008B01040F151FEB015E01AE18BF08C0174D
:10013000D10759F06991D601ED91FC910190F081C0
:10014000E02DC6010995892B79F7C501DF91CF9183
:100150001F910F91FF90EF90DF90CF90BF90AF90E5
:100160000895FC01538D448D252F30E0842F90E0BD
:10017000821B930B541710F0CF96089501970895A2
:10018000FC01918D828D981761F0A28DAE0FBF2F6B
:10019000B11D5D968C91928D9F5F9F73928F90E0C1
:1001A00008958FEF9FEF0895FC01918D828D981730
:1001B00031F0828DE80FF11D858D90E008958FEF6D
:1001C0009FEF0895FC01918D228D892F90E0805C36
:1001D0009F4F821B91098F739927089585EE93E0B5
:1001E0000E94E20021E0892B09F420E0822F08958B
:1001F00080E090E0892B29F00E94EE0081110C94A0
:1002000000000895FC01A48DA80FB92FB11DA35AB9
:10021000BF4F2C91848D90E001968F739927848F26
:10022000A689B7892C93A089B1898C918370806449
:100230008C93938D848D981306C00288F389E02DEA
:1002400080818F7D80830895EF92FF920F931F939B
:10025000CF93DF93EC0181E0888F9B8D8C8D981379
:100260001AC0E889F989808185FF15C09FB7F89485
:10027000EE89FF896083E889F989808183708064D1
:1002800080839FBF81E090E0DF91CF911F910F911C
:10029000FF90EF900895F62E0B8D10E00F5F1F4F2B
:1002A0000F731127E02E8C8D8E110CC00FB607FC3A
:1002B000FACFE889F989808185FFF5CFCE010E94C8
:1002C0000201F1CFEB8DEC0FFD2FF11DE35AFF4F33
:1002D000F0829FB7F8940B8FEA89FB898081806256
:1002E000CFCFCF93DF93EC01888D8823B9F0AA8913
:1002F000BB89E889F9898C9185FD03C0808186FDE1
:100300000DC00FB607FCF7CF8C9185FFF2CF80812F
:1003100085FFEDCFCE010E940201E9CFDF91CF91A1
:1003200008951F93CF93DF93613024E0720714F098
:100330007450FACF77FF02C07C5FFCCF472F71303B
:1003400051F520E032E0D901A61BB70BBD019C019D
:1003500035952795C901C5E0D0E010E850E0A52FFC
:10036000A10FBB27BB1FFD01F595E7953595279597
:10037000DF01A050BD4FAC91B0E0A617B707C4F4A1
:10038000820F931F5E2F219751F74230C1F4919550
:100390008195910916C0723011F47250D8CF733024
:1003A000B1F620E034E0F901E61BF70BBF01CFCF37
:1003B0006A177B0744F7821B930B1E2FE4CF433051
:1003C00031F3DF91CF911F910895CF93DF93FC011B
:1003D00001900020E9F73197AF01481B590BBC0190
:1003E00085EE93E00E948400EC0142E050E062EC74
:1003F00073E085EE93E00E9484008C0F9D1FDF91D7
:10040000CF9108951F920F920FB60F9211242F9340
:100410003F938F939F93AF93BF938091DD03909110
:10042000DE03A091DF03B091E0033091DC0323E011
:10043000230F2D3758F50196A11DB11D2093DC0324
:100440008093DD039093DE03A093DF03B093E0037A
:100450008091E1039091E203A091E303B091E40362
:100460000196A11DB11D8093E1039093E203A09337
:10047000E303B093E403BF91AF919F918F913F91BC
:100480002F910F900FBE0F901F90189526E8230F05
:100490000296A11DB11DD2CF1F920F920FB60F92DF
:1004A00011242F933F934F935F936F937F938F9379
:1004B0009F93AF93BF93EF93FF9385EE93E00E94DA
:1004C0000201FF91EF91BF91AF919F918F917F9129
:1004D0006F915F914F913F912F910F900FBE0F90B1
:1004E0001F9018951F920F920FB60F9211242F9301
:1004F0008F939F93EF93FF93E091F503F091F603B1
:100500008081E091FB03F091FC0382FD1BC0908190
:100510008091FE038F5F8F732091FF03821741F05C
:10052000E091FE03F0E0EB51FC4F958F8093FE03CA
:10053000FF91EF919F918F912F910F900FBE0F9090
:100540001F9018958081F4CFCF93DF93CDB7DEB79E
:10055000AC970FB6F894DEBF0FBECDBF789484B5CC
:10056000826084BD84B5816084BD85B5826085BDAF
:1005700085B5816085BD80916E00816080936E003D
:10058000109281008091810082608093810080912F
:1005900081008160809381008091800081608093E0
:1005A00080008091B10084608093B1008091B000A0
:1005B00081608093B00080917A00846080937A009B
:1005C00080917A00826080937A0080917A008160C5
:1005D00080937A0080917A00806880937A001092EC
:1005E000C100E091F503F091F60382E08083E09191
:1005F000F103F091F2031082E091F303F091F40320
:1006000080E180831092FD03E091F903F091FA03F9
:1006100086E08083E091F703F091F80380818061A8
:100620008083E091F703F091F803808188608083F4
:10063000E091F703F091F803808180688083E09176
:10064000F703F091F80380818F7D808385EE93E03E
:100650000E94E200181619060CF0E0C328ED33E002
:100660003093DB032093DA0389019AEDE92E93E0BE
:10067000F92E2FB7F8948091DD039091DE03A091BD
:10068000DF03B091E0032FBF8093ED039093EE035F
:10069000A093EF03B093F00385EE93E00E94C000B7
:1006A00097FFC1C32FB7F8948091DD039091DE03CB
:1006B000A091DF03B091E0032FBF4091ED03509173
:1006C000EE036091EF037091F003841B950BA60B72
:1006D000B70B4091E9035091EA036091EB037091ED
:1006E000EC0384179507A607B707B0F26091DA0309
:1006F0007091DB0342E050E085EE93E00E948400BD
:100700000E945F006D8B7E8B8F8B988F6093D403DC
:100710007093D5038093D6039093D7034091D80369
:100720005091D9035A8F498F8DB79EB79EA38DA341
:10073000A6EAB3E0BB87AA87FD0190E080E02191A3
:100740003191498D5A8D4217530710F09987888748
:1007500001968C30910599F7E885F985EE0FFF1F1A
:10076000EA55FC4F40805180C201880F991FADB7F8
:10077000BEB7A81BB90B0FB6F894BEBF0FBEADBF76
:10078000EDB7FEB73196FD83EC832DB73EB7281B3E
:10079000390B0FB6F8943EBF0FBE2DBF4DB75EB7F5
:1007A0004F5F5F4F5B834A83FC8BEB8B5F834E8392
:1007B00080E0682E81E0782E1301DA018F0170E06D
:1007C00060E0C12CD12C760150E040E090E080E068
:1007D00064157505FCF4F801119211928F011D92B8
:1007E0001D92F101219131911F014901032E000C4D
:1007F000AA08BB08C80CD91CEA1CFB1C821793076B
:100800002CF0241735070CF4A9019C016F5F7F4F72
:10081000C901DECF088404C0F594E794D794C79447
:100820000A94D2F7841B950B8C01092E000C220B25
:10083000330B8130F4E09F070CF4FDC260E0359586
:100840002795179507956F5F013044E01407210540
:100850003105ACF7E0E0F1E030E020E024153505AB
:100860008CF441915191DF0112974C195D09062ECC
:1008700002C0559547950A94E2F74D935C932F5F1C
:100880003F4FECCF20E8261B298381159440E4F4E8
:100890004981415030E020E02415350594F4F301FE
:1008A000819191913F0132978C199D09042E02C0CC
:1008B000880F991F0A94E2F7918380832F5F3F4F3F
:1008C000EBCFF981F158F983F6EAAF2EF3E0BF2EB2
:1008D000912C812C10E000E0288539858216930642
:1008E00051F1D5012D913D915D01B901660F771F41
:1008F000C2010E946C096801CC0CDD1CAA81BB817D
:1009000090E080E08217930764F44D915D917D0142
:10091000EC0CFD1C460F571FF701518340830196D5
:10092000F1CF37FF02C030E020E0020F131FFFEFCE
:100930008F1A9F0AD1CF2C813D81AA81BB8190E083
:1009400080E08415950594F4ED91FD91EE0FFF1F65
:10095000E050FF4F40815181F901419351939F0134
:10096000FD013297118210820196EBCF1F861E8601
:100970002E853F85488559852417350709F438C1E8
:10098000AA85BB85ED91FD91BB87AA87FD87EC8782
:100990002F5F3F4F3F872E872D913C91C201B901B8
:1009A0000E946C097CA76BA780E094E0B9010E94CB
:1009B0006C0990E080E00E945C079B01AC0160E064
:1009C00070E0CB010E9457086FA378A789A79AA768
:1009D0002C853D85220F331F220F331F3C8F2B8F19
:1009E0004C855D85440F551F58A34F8FB12CA12C0A
:1009F0001A8A8C859D85A816B9060CF0D0C0B50161
:100A00000B2C000C880B990B0E945E072FA138A5B8
:100A100049A55AA50E9499070E9436093B0177FE15
:100A200005C09CEF791AFBCF34E0731AA1E06A1677
:100A3000A4E07A06CCF71501220C331C8A809B8037
:100A4000820C931CEC81FD812E0E3F1E198A188AA0
:100A500020E031E0261937093CA32BA34BA55CA568
:100A600088899989841795070CF095C0AF8DB8A136
:100A7000A20DB31DBE8FAD8FED90FC90EF8DF8A150
:100A8000E80DF91DFAA3E9A3008111816114710435
:100A900059F06114F1E07F0609F047C088279927D3
:100AA000801B910B87017C01D1018D919C91119745
:100AB0008E199F09ED8DFE8D918380838D919C9180
:100AC0001197E80EF91EED92FC92F8E6EF1AF5EC9C
:100AD000FF0A21E3E21625E7F20610F031E03A8B37
:100AE000D4018D919C911197801B910BE9A1FAA1E2
:100AF000918380838D919C911197080F191F0D93FD
:100B00001C930856154C0133154710F021E02A8B31
:100B1000488959894F5F5F4F598B488B8B8D9C8DCE
:100B2000880E991E280E391E99CF611422E0720694
:100B300039F4F194E194F108119501951109B4CFBC
:100B4000611433E0730639F4882799278E199F09B9
:100B500078018C01A9CF611444E0740609F4A4CF94
:100B60006BA17CA1C7010E9491016C01B301C80176
:100B70000E949101C81AD90AB301C7010E949101CC
:100B80007C016BA17CA1C8010E9491018701080F23
:100B9000191F760189CF9FEFA91AB90A2ACFAA890E
:100BA000A13009F0E5CEEA81FB816C817D8190E086
:100BB00080E084159505C4F4DB012D913D91BD01C4
:100BC000AD014250510935952795DA012D933C939B
:100BD00021913191AF014250510935952795DA01A4
:100BE0002D933C930196E5CFB981B150B983C0CE26
:100BF000E981E13830F14E2F4058EA81FB8190E0E5
:100C000080E084159505ECF4AB89BC892D913D916C
:100C1000BC8BAB8B1297042E02C0359527950A9496
:100C2000E2F72D933C9321913191DF011297042E2D
:100C300002C0359527950A94E2F72D933C930196CF
:100C4000E0CFE98DFA8DBF01FF0F880B990B0E9451
:100C50005E079B01AC0160E070EE8BE297E40E94BE
:100C6000C4080E9436096B01E885F985EE0FFF1F65
:100C7000EC55FC4F00811181B2E08B2EB1E09B2E30
:100C8000AC81BD81129661E070E06017710708F0D9
:100C90005EC0EE80FF80F701828193812D913D91AE
:100CA00021153105B9F40097D1F4F40181939193A2
:100CB0004F012E813F812E5F3F4F3F832E83F701EF
:100CC000808191818C0D9D1DF901918380836F5FDF
:100CD0007F4FDBCF37FF03C031952195310997FF57
:100CE00003C0919581959109821793072CF4522F97
:100CF000432F9C01852F942FA901440F551F420FAC
:100D0000531F481759078CF2A901E3E05595479501
:100D1000EA95E1F74115510511F441E050E0B12C9D
:100D20002817390724F4240F351FB394F9CF2B2D3E
:100D300030E02E563C4FF901B08055954795B49E52
:100D40009001B59E300D1124820F931FAECF2DA1BF
:100D50003EA10FB6F8943EBF0FBE2DBF0E945F00AC
:100D60002D893E894F89588D621B730B840B950B1F
:100D70006093D0037093D1038093D2039093D303F5
:100D800085EC93E00E94E5014091D8035091D9038E
:100D9000440F551F60E071E085EE93E00E948400EF
:100DA00080ED93E09093DB038093DA0344E050E01E
:100DB000BC0185EE93E00E9484000E945F004B011D
:100DC0005C0184E6C82ED12CE12CF12C0E945F003E
:100DD000681979098A099B09683E73408105910564
:100DE000A8F331E0C31AD108E108F10848EE840EF7
:100DF00043E0941EA11CB11CC114D104E104F10410
:100E000029F780E090E0892B09F420CC0E94EE00C5
:100E1000882309F41BCC0E94000018CC8AEC93E0D4
:100E20000E94E501CACFD8018D938D01EA16FB0619
:100E300009F01FCC5BCC19828115944009F444CD94
:100E4000011554E01507210531050CF021CD000FE7
:100E5000111F221F331F89818F5F8983F1CFE5EE38
:100E6000F3E01382128288EE93E0A0E0B0E0848386
:100E70009583A683B78384E893E09183808385EC90
:100E800090E09587848784EC90E09787868780EC54
:100E900090E0918B808B81EC90E0938B828B82EC45
:100EA00090E0958B848B86EC90E0978B868B118EEF
:100EB000128E138E148E0895E89409C097FB3EF4A9
:100EC00090958095709561957F4F8F4F9F4F992397
:100ED000A9F0F92F96E9BB279395F6958795779515
:100EE0006795B795F111F8CFFAF4BB0F11F460FFD5
:100EF0001BC06F5F7F4F8F4F9F4F16C0882311F02D
:100F000096E911C0772321F09EE8872F762F05C040
:100F1000662371F096E8862F70E060E02AF09A95DB
:100F2000660F771F881FDAF7880F9695879597F9D0
:100F300008950E94AC070C941D080E940F0838F019
:100F40000E94160820F0952311F00C9406080C94CA
:100F50000C0811240C9451080E942E0870F3959FE0
:100F6000C1F3950F50E0551F629FF001729FBB27A0
:100F7000F00DB11D639FAA27F00DB11DAA1F649F3C
:100F80006627B00DA11D661F829F2227B00DA11DEF
:100F9000621F739FB00DA11D621F839FA00D611D75
:100FA000221F749F3327A00D611D231F849F600D96
:100FB000211D822F762F6A2F11249F5750409AF0BF
:100FC000F1F088234AF0EE0FFF1FBB1F661F771F4B
:100FD000881F91505040A9F79E3F510580F00C9416
:100FE00006080C9451085F3FE4F3983ED4F38695CD
:100FF00077956795B795F795E7959F5FC1F7FE2BB6
:10100000880F911D9695879597F9089597F99F6791
:1010100080E870E060E008959FEF80EC0895002480
:101020000A941616170618060906089500240A944D
:1010300012161306140605060895092E0394000CD3
:1010400011F4882352F0BB0F40F4BF2B11F460FF62
:1010500004C06F5F7F4F8F4F9F4F089557FD90588B
:10106000440F551F59F05F3F71F04795880F97FB6C
:10107000991F61F09F3F79F0879508951216130626
:101080001406551FF2CF4695F1DF08C01616170655
:101090001806991FF1CF869571056105089408958A
:1010A000E894BB2766277727CB0197F90895505816
:1010B000BB27AA270E946F080C941D080E940F08E6
:1010C00038F00E94160820F039F49F3F19F426F4F6
:1010D0000C940C080EF4E095E7FB0C940608E92F3D
:1010E0000E942E0858F3BA17620773078407950702
:1010F00020F079F4A6F50C9450080EF4E0950B2E30
:10110000BA2FA02D0B01B90190010C01CA01A00159
:101110001124FF27591B99F0593F50F4503E68F1B4
:101120001A16F040A22F232F342F4427585FF3CFF5
:10113000469537952795A795F0405395C9F77EF4C6
:101140001F16BA0B620B730B840BBAF09150A1F00F
:10115000FF0FBB1F661F771F881FC2F70EC0BA0F95
:10116000621F731F841F48F4879577956795B7951D
:10117000F7959E3F08F0B0CF9395880F08F0992718
:10118000EE0F9795879508950E94D8080C941D0836
:101190000E94160858F00E940F0840F029F45F3FA3
:1011A00029F00C94060851110C9451080C940C0869
:1011B0000E942E0868F39923B1F3552391F3951BF0
:1011C000550BBB27AA2762177307840738F09F5F68
:1011D0005F4F220F331F441FAA1FA9F335D00E2ED5
:1011E0003AF0E0E832D091505040E695001CCAF742
:1011F0002BD0FE2F29D0660F771F881FBB1F261705
:1012000037074807AB07B0E809F0BB0B802DBF01DB
:10121000FF2793585F4F3AF09E3F510578F00C94AA
:1012200006080C9451085F3FE4F3983ED4F386958A
:1012300077956795B795F7959F5FC9F7880F911DCB
:101240009695879597F90895E1E0660F771F881FB7
:10125000BB1F621773078407BA0720F0621B730B6A
:10126000840BBA0BEE1F88F7E09508950E943D09A4
:101270006894B1110C94510808950E94360888F0C2
:101280009F5798F0B92F9927B751B0F0E1F0660F4A
:10129000771F881F991F1AF0BA95C9F714C0B1308B
:1012A00091F00E945008B1E008950C945008672F07
:1012B000782F8827B85F39F0B93FCCF386957795BA
:1012C0006795B395D9F73EF49095809570956195A3
:1012D0007F4F8F4F9F4F0895AA1BBB1B51E107C043
:1012E000AA1FBB1FA617B70710F0A61BB70B881FB6
:1012F000991F5A95A9F780959095BC01CD01089545
:10130000EE0FFF1F0590F491E02D0994F894FFCFA4
:10131000000038169529B4370C3F2C3FC238712D88
:10132000831F771193057BFDF7F9D7FA13FF0E059D
:10133000F00A0D0F3C10120EEF08E30170FA2EF4C4
:101340006FF0F2EFB3F2E1F70AFE5F031A06DC0476
:1013500005FFDFF4A6E75BD96CCC4DC301C0B9C370
:1013600096CE94DFB5F44B0B6C206A31473CFF3FBF
:10137000B33C9433A5265A18210BFB0024FBE6F955
:10138000A1FCF6011F084D0D0E10910FD20B900518
:101390001DFE11F7EEF1C4EFF3F010F5F2FAED00D7
:1013A0002905090685026DFA89EE7DE08FD23EC7D8
:1013B000D4C0F4C04CC86BD6C8E9000038169529D3
:1013C000B4370C3F2C3FC238712D831F7711930522
:1013D0007BFDF7F9D7FA13FF0E05F00A0D0F3C104D
:1013E000120EEF08E30170FA2EF46FF0F2EFB3F291
:1013F000E1F70AFE5F031A06DC0405FFDFF4A6E747
:101400005BD96CCC4DC301C0B9C396CE94DFB5F4A3
:101410004B0B6C206A31473CFF3FB33C9433A5260D
:101420005A18210BFB0024FBE6F9A1FCF6011F086A
:101430004D0D0E10910FD20B90051DFE11F7EEF120
:10144000C4EFF3F010F5F2FAED0029050906850264
:101450006DFA89EE7DE08FD23EC7D4C0F4C04CC88F
:101460006BD6C8E9000038169529B4370C3F2C3FDD
:10147000C238712D831F771193057BFDF7F9D7FAD9
:1014800013FF0E05F00A0D0F3C10120EEF08E301DA
:1014900070FA2EF46FF0F2EFB3F2E1F70AFE5F0399
:1014A0001A06DC0405FFDFF4A6E75BD96CCC4DC35C
:1014B00001C0B9C396CE94DFB5F44B0B6C206A31F2
:1014C000473CFF3FB33C9433A5265A18210BFB0041
:1014D00024FBE6F9A1FCF6011F084D0D0E10910F3B
:1014E000D20B90051DFE11F7EEF1C4EFF3F010F5ED
:1014F000F2FAED002905090685026DFA89EE7DE014
:101500008FD23EC7D4C0F4C04CC86BD6C8E9000027
:1015100000010304050608090A0B0D0E0F11121332
:10152000141617181A1B1C1D1F20212324252728D9
:10153000292A2C2D2E30313234353638393B3C3D7A
:101540003F404143444647484A4B4D4E5051525408
:101550005557585A5B5D5E606163646668696B6C81
:101560006E7071737576787A7C7D7F8183858688CD
:101570008A8C8E90929496989B9D9FA1A4A6A9ABCD
:10158000AEB0B3B6B9BCBFC3C6CACED2D7DDE3ECEA
:101590000000000024018400B1007101E200C000DD
:1015A000D400070606050505040404040303030329
:1015B00003030302020201000200040008001000FD
:1015C000200040008000000100020004000800101C
:1015D00000000D0A00646F6E650072656164790039
:107E0000112484B714BE81FFF0D085E080938100F7
:107E100082E08093C00088E18093C10086E0809377
:107E2000C20080E18093C4008EE0C9D0259A86E02C
:107E300020E33CEF91E0309385002093840096BBD3
:107E4000B09BFECF1D9AA8958150A9F7CC24DD24C4
:107E500088248394B5E0AB2EA1E19A2EF3E0BF2EE7
:107E6000A2D0813461F49FD0082FAFD0023811F036
:107E7000013811F484E001C083E08DD089C08234E0
:107E800011F484E103C0853419F485E0A6D080C0E4
:107E9000853579F488D0E82EFF2485D0082F10E0AE
:107EA000102F00270E291F29000F111F8ED06801E7
:107EB0006FC0863521F484E090D080E0DECF843638
:107EC00009F040C070D06FD0082F6DD080E0C81688
:107ED00080E7D80618F4F601B7BEE895C0E0D1E017
:107EE00062D089930C17E1F7F0E0CF16F0E7DF06D8
:107EF00018F0F601B7BEE89568D007B600FCFDCFD4
:107F0000A601A0E0B1E02C9130E011968C91119780
:107F100090E0982F8827822B932B1296FA010C0160
:107F200087BEE89511244E5F5F4FF1E0A038BF0790
:107F300051F7F601A7BEE89507B600FCFDCF97BE46
:107F4000E89526C08437B1F42ED02DD0F82E2BD052
:107F50003CD0F601EF2C8F010F5F1F4F84911BD097
:107F6000EA94F801C1F70894C11CD11CFA94CF0C13
:107F7000D11C0EC0853739F428D08EE10CD085E9AC
:107F80000AD08FE07ACF813511F488E018D01DD067
:107F900080E101D065CF982F8091C00085FFFCCF94
:107FA0009093C60008958091C00087FFFCCF809118
:107FB000C00084FD01C0A8958091C6000895E0E648
:107FC000F0E098E1908380830895EDDF803219F02E
:107FD00088E0F5DFFFCF84E1DECF1F93182FE3DFCA
:107FE0001150E9F7F2DF1F91089580E0E8DFEE27F6
:047FF000FF270994CA
:027FFE00040479
:00000001FF
